{
  "_format": "hh-sol-artifact-1",
  "contractName": "Vault",
  "sourceName": "contracts/protocol/Vault.sol",
  "abi": [
    {
      "anonymous": false,
      "inputs": [
        {
          "indexed": true,
          "internalType": "uint256",
          "name": "id",
          "type": "uint256"
        },
        {
          "indexed": false,
          "internalType": "uint256",
          "name": "debtShare",
          "type": "uint256"
        }
      ],
      "name": "AddDebt",
      "type": "event"
    },
    {
      "anonymous": false,
      "inputs": [
        {
          "indexed": true,
          "internalType": "address",
          "name": "owner",
          "type": "address"
        },
        {
          "indexed": true,
          "internalType": "address",
          "name": "spender",
          "type": "address"
        },
        {
          "indexed": false,
          "internalType": "uint256",
          "name": "value",
          "type": "uint256"
        }
      ],
      "name": "Approval",
      "type": "event"
    },
    {
      "anonymous": false,
      "inputs": [
        {
          "indexed": true,
          "internalType": "uint256",
          "name": "id",
          "type": "uint256"
        },
        {
          "indexed": true,
          "internalType": "address",
          "name": "killer",
          "type": "address"
        },
        {
          "indexed": false,
          "internalType": "uint256",
          "name": "prize",
          "type": "uint256"
        },
        {
          "indexed": false,
          "internalType": "uint256",
          "name": "left",
          "type": "uint256"
        }
      ],
      "name": "Kill",
      "type": "event"
    },
    {
      "anonymous": false,
      "inputs": [
        {
          "indexed": true,
          "internalType": "address",
          "name": "previousOwner",
          "type": "address"
        },
        {
          "indexed": true,
          "internalType": "address",
          "name": "newOwner",
          "type": "address"
        }
      ],
      "name": "OwnershipTransferred",
      "type": "event"
    },
    {
      "anonymous": false,
      "inputs": [
        {
          "indexed": true,
          "internalType": "uint256",
          "name": "id",
          "type": "uint256"
        },
        {
          "indexed": false,
          "internalType": "uint256",
          "name": "debtShare",
          "type": "uint256"
        }
      ],
      "name": "RemoveDebt",
      "type": "event"
    },
    {
      "anonymous": false,
      "inputs": [
        {
          "indexed": true,
          "internalType": "address",
          "name": "from",
          "type": "address"
        },
        {
          "indexed": true,
          "internalType": "address",
          "name": "to",
          "type": "address"
        },
        {
          "indexed": false,
          "internalType": "uint256",
          "name": "value",
          "type": "uint256"
        }
      ],
      "name": "Transfer",
      "type": "event"
    },
    {
      "anonymous": false,
      "inputs": [
        {
          "indexed": true,
          "internalType": "uint256",
          "name": "id",
          "type": "uint256"
        },
        {
          "indexed": false,
          "internalType": "uint256",
          "name": "loan",
          "type": "uint256"
        }
      ],
      "name": "Work",
      "type": "event"
    },
    {
      "inputs": [],
      "name": "POSITION_ID",
      "outputs": [
        {
          "internalType": "uint256",
          "name": "",
          "type": "uint256"
        }
      ],
      "stateMutability": "view",
      "type": "function"
    },
    {
      "inputs": [],
      "name": "STRATEGY",
      "outputs": [
        {
          "internalType": "address",
          "name": "",
          "type": "address"
        }
      ],
      "stateMutability": "view",
      "type": "function"
    },
    {
      "inputs": [],
      "name": "_IN_EXEC_LOCK",
      "outputs": [
        {
          "internalType": "uint256",
          "name": "",
          "type": "uint256"
        }
      ],
      "stateMutability": "view",
      "type": "function"
    },
    {
      "inputs": [
        {
          "internalType": "address",
          "name": "owner",
          "type": "address"
        },
        {
          "internalType": "address",
          "name": "spender",
          "type": "address"
        }
      ],
      "name": "allowance",
      "outputs": [
        {
          "internalType": "uint256",
          "name": "",
          "type": "uint256"
        }
      ],
      "stateMutability": "view",
      "type": "function"
    },
    {
      "inputs": [
        {
          "internalType": "address",
          "name": "spender",
          "type": "address"
        },
        {
          "internalType": "uint256",
          "name": "amount",
          "type": "uint256"
        }
      ],
      "name": "approve",
      "outputs": [
        {
          "internalType": "bool",
          "name": "",
          "type": "bool"
        }
      ],
      "stateMutability": "nonpayable",
      "type": "function"
    },
    {
      "inputs": [
        {
          "internalType": "address",
          "name": "account",
          "type": "address"
        }
      ],
      "name": "balanceOf",
      "outputs": [
        {
          "internalType": "uint256",
          "name": "",
          "type": "uint256"
        }
      ],
      "stateMutability": "view",
      "type": "function"
    },
    {
      "inputs": [],
      "name": "config",
      "outputs": [
        {
          "internalType": "contract IVaultConfig",
          "name": "",
          "type": "address"
        }
      ],
      "stateMutability": "view",
      "type": "function"
    },
    {
      "inputs": [
        {
          "internalType": "uint256",
          "name": "debtShare",
          "type": "uint256"
        }
      ],
      "name": "debtShareToVal",
      "outputs": [
        {
          "internalType": "uint256",
          "name": "",
          "type": "uint256"
        }
      ],
      "stateMutability": "view",
      "type": "function"
    },
    {
      "inputs": [],
      "name": "debtToken",
      "outputs": [
        {
          "internalType": "address",
          "name": "",
          "type": "address"
        }
      ],
      "stateMutability": "view",
      "type": "function"
    },
    {
      "inputs": [
        {
          "internalType": "uint256",
          "name": "debtVal",
          "type": "uint256"
        }
      ],
      "name": "debtValToShare",
      "outputs": [
        {
          "internalType": "uint256",
          "name": "",
          "type": "uint256"
        }
      ],
      "stateMutability": "view",
      "type": "function"
    },
    {
      "inputs": [],
      "name": "decimals",
      "outputs": [
        {
          "internalType": "uint8",
          "name": "",
          "type": "uint8"
        }
      ],
      "stateMutability": "view",
      "type": "function"
    },
    {
      "inputs": [
        {
          "internalType": "address",
          "name": "spender",
          "type": "address"
        },
        {
          "internalType": "uint256",
          "name": "subtractedValue",
          "type": "uint256"
        }
      ],
      "name": "decreaseAllowance",
      "outputs": [
        {
          "internalType": "bool",
          "name": "",
          "type": "bool"
        }
      ],
      "stateMutability": "nonpayable",
      "type": "function"
    },
    {
      "inputs": [
        {
          "internalType": "uint256",
          "name": "amountToken",
          "type": "uint256"
        }
      ],
      "name": "deposit",
      "outputs": [],
      "stateMutability": "payable",
      "type": "function"
    },
    {
      "inputs": [],
      "name": "fairLaunchPoolId",
      "outputs": [
        {
          "internalType": "uint256",
          "name": "",
          "type": "uint256"
        }
      ],
      "stateMutability": "view",
      "type": "function"
    },
    {
      "inputs": [
        {
          "internalType": "address",
          "name": "spender",
          "type": "address"
        },
        {
          "internalType": "uint256",
          "name": "addedValue",
          "type": "uint256"
        }
      ],
      "name": "increaseAllowance",
      "outputs": [
        {
          "internalType": "bool",
          "name": "",
          "type": "bool"
        }
      ],
      "stateMutability": "nonpayable",
      "type": "function"
    },
    {
      "inputs": [
        {
          "internalType": "contract IVaultConfig",
          "name": "_config",
          "type": "address"
        },
        {
          "internalType": "address",
          "name": "_token",
          "type": "address"
        },
        {
          "internalType": "string",
          "name": "_name",
          "type": "string"
        },
        {
          "internalType": "string",
          "name": "_symbol",
          "type": "string"
        },
        {
          "internalType": "uint8",
          "name": "_decimals",
          "type": "uint8"
        },
        {
          "internalType": "address",
          "name": "_debtToken",
          "type": "address"
        }
      ],
      "name": "initialize",
      "outputs": [],
      "stateMutability": "nonpayable",
      "type": "function"
    },
    {
      "inputs": [
        {
          "internalType": "uint256",
          "name": "id",
          "type": "uint256"
        }
      ],
      "name": "kill",
      "outputs": [],
      "stateMutability": "nonpayable",
      "type": "function"
    },
    {
      "inputs": [],
      "name": "lastAccrueTime",
      "outputs": [
        {
          "internalType": "uint256",
          "name": "",
          "type": "uint256"
        }
      ],
      "stateMutability": "view",
      "type": "function"
    },
    {
      "inputs": [],
      "name": "name",
      "outputs": [
        {
          "internalType": "string",
          "name": "",
          "type": "string"
        }
      ],
      "stateMutability": "view",
      "type": "function"
    },
    {
      "inputs": [],
      "name": "nextPositionID",
      "outputs": [
        {
          "internalType": "uint256",
          "name": "",
          "type": "uint256"
        }
      ],
      "stateMutability": "view",
      "type": "function"
    },
    {
      "inputs": [],
      "name": "owner",
      "outputs": [
        {
          "internalType": "address",
          "name": "",
          "type": "address"
        }
      ],
      "stateMutability": "view",
      "type": "function"
    },
    {
      "inputs": [
        {
          "internalType": "uint256",
          "name": "value",
          "type": "uint256"
        }
      ],
      "name": "pendingInterest",
      "outputs": [
        {
          "internalType": "uint256",
          "name": "",
          "type": "uint256"
        }
      ],
      "stateMutability": "view",
      "type": "function"
    },
    {
      "inputs": [
        {
          "internalType": "uint256",
          "name": "id",
          "type": "uint256"
        }
      ],
      "name": "positionInfo",
      "outputs": [
        {
          "internalType": "uint256",
          "name": "",
          "type": "uint256"
        },
        {
          "internalType": "uint256",
          "name": "",
          "type": "uint256"
        }
      ],
      "stateMutability": "view",
      "type": "function"
    },
    {
      "inputs": [
        {
          "internalType": "uint256",
          "name": "",
          "type": "uint256"
        }
      ],
      "name": "positions",
      "outputs": [
        {
          "internalType": "address",
          "name": "worker",
          "type": "address"
        },
        {
          "internalType": "address",
          "name": "owner",
          "type": "address"
        },
        {
          "internalType": "uint256",
          "name": "debtShare",
          "type": "uint256"
        }
      ],
      "stateMutability": "view",
      "type": "function"
    },
    {
      "inputs": [
        {
          "internalType": "uint256",
          "name": "value",
          "type": "uint256"
        }
      ],
      "name": "reduceReserve",
      "outputs": [],
      "stateMutability": "nonpayable",
      "type": "function"
    },
    {
      "inputs": [],
      "name": "renounceOwnership",
      "outputs": [],
      "stateMutability": "nonpayable",
      "type": "function"
    },
    {
      "inputs": [
        {
          "internalType": "address",
          "name": "targetedToken",
          "type": "address"
        },
        {
          "internalType": "uint256",
          "name": "amount",
          "type": "uint256"
        }
      ],
      "name": "requestFunds",
      "outputs": [],
      "stateMutability": "nonpayable",
      "type": "function"
    },
    {
      "inputs": [],
      "name": "reservePool",
      "outputs": [
        {
          "internalType": "uint256",
          "name": "",
          "type": "uint256"
        }
      ],
      "stateMutability": "view",
      "type": "function"
    },
    {
      "inputs": [
        {
          "internalType": "uint256",
          "name": "_poolId",
          "type": "uint256"
        }
      ],
      "name": "setFairLaunchPoolId",
      "outputs": [],
      "stateMutability": "nonpayable",
      "type": "function"
    },
    {
      "inputs": [],
      "name": "symbol",
      "outputs": [
        {
          "internalType": "string",
          "name": "",
          "type": "string"
        }
      ],
      "stateMutability": "view",
      "type": "function"
    },
    {
      "inputs": [],
      "name": "token",
      "outputs": [
        {
          "internalType": "address",
          "name": "",
          "type": "address"
        }
      ],
      "stateMutability": "view",
      "type": "function"
    },
    {
      "inputs": [],
      "name": "totalSupply",
      "outputs": [
        {
          "internalType": "uint256",
          "name": "",
          "type": "uint256"
        }
      ],
      "stateMutability": "view",
      "type": "function"
    },
    {
      "inputs": [],
      "name": "totalToken",
      "outputs": [
        {
          "internalType": "uint256",
          "name": "",
          "type": "uint256"
        }
      ],
      "stateMutability": "view",
      "type": "function"
    },
    {
      "inputs": [
        {
          "internalType": "address",
          "name": "recipient",
          "type": "address"
        },
        {
          "internalType": "uint256",
          "name": "amount",
          "type": "uint256"
        }
      ],
      "name": "transfer",
      "outputs": [
        {
          "internalType": "bool",
          "name": "",
          "type": "bool"
        }
      ],
      "stateMutability": "nonpayable",
      "type": "function"
    },
    {
      "inputs": [
        {
          "internalType": "address",
          "name": "sender",
          "type": "address"
        },
        {
          "internalType": "address",
          "name": "recipient",
          "type": "address"
        },
        {
          "internalType": "uint256",
          "name": "amount",
          "type": "uint256"
        }
      ],
      "name": "transferFrom",
      "outputs": [
        {
          "internalType": "bool",
          "name": "",
          "type": "bool"
        }
      ],
      "stateMutability": "nonpayable",
      "type": "function"
    },
    {
      "inputs": [
        {
          "internalType": "address",
          "name": "newOwner",
          "type": "address"
        }
      ],
      "name": "transferOwnership",
      "outputs": [],
      "stateMutability": "nonpayable",
      "type": "function"
    },
    {
      "inputs": [
        {
          "internalType": "contract IVaultConfig",
          "name": "_config",
          "type": "address"
        }
      ],
      "name": "updateConfig",
      "outputs": [],
      "stateMutability": "nonpayable",
      "type": "function"
    },
    {
      "inputs": [],
      "name": "vaultDebtShare",
      "outputs": [
        {
          "internalType": "uint256",
          "name": "",
          "type": "uint256"
        }
      ],
      "stateMutability": "view",
      "type": "function"
    },
    {
      "inputs": [],
      "name": "vaultDebtVal",
      "outputs": [
        {
          "internalType": "uint256",
          "name": "",
          "type": "uint256"
        }
      ],
      "stateMutability": "view",
      "type": "function"
    },
    {
      "inputs": [
        {
          "internalType": "uint256",
          "name": "share",
          "type": "uint256"
        }
      ],
      "name": "withdraw",
      "outputs": [],
      "stateMutability": "nonpayable",
      "type": "function"
    },
    {
      "inputs": [
        {
          "internalType": "address",
          "name": "to",
          "type": "address"
        },
        {
          "internalType": "uint256",
          "name": "value",
          "type": "uint256"
        }
      ],
      "name": "withdrawReserve",
      "outputs": [],
      "stateMutability": "nonpayable",
      "type": "function"
    },
    {
      "inputs": [
        {
          "internalType": "uint256",
          "name": "id",
          "type": "uint256"
        },
        {
          "internalType": "address",
          "name": "worker",
          "type": "address"
        },
        {
          "internalType": "uint256",
          "name": "principalAmount",
          "type": "uint256"
        },
        {
          "internalType": "uint256",
          "name": "loan",
          "type": "uint256"
        },
        {
          "internalType": "uint256",
          "name": "maxReturn",
          "type": "uint256"
        },
        {
          "internalType": "bytes",
          "name": "data",
          "type": "bytes"
        }
      ],
      "name": "work",
      "outputs": [],
      "stateMutability": "payable",
      "type": "function"
    },
    {
      "stateMutability": "payable",
      "type": "receive"
    }
  ],
  "bytecode": "0x60806040523480156200001157600080fd5b5061843280620000226000396000f3fe6080604052600436106102555760003560e01c806381a47ba911610139578063c9a4bb3f116100b6578063e0a2b5a01161007a578063e0a2b5a014610e01578063ea7d530f14610fcd578063f2fde38b1461101c578063f60290e41461106d578063f8d89898146110bc578063fc0c546a146111135761025c565b8063c9a4bb3f14610c2a578063d29a002514610c55578063d72ef77114610c90578063d7ac71ff14610d51578063dd62ed3e14610d7c5761025c565b806399fbab88116100fd57806399fbab8814610a365780639ffe797314610aeb578063a457c2d714610b16578063a9059cbb14610b89578063b6b55f2514610bfc5761025c565b806381a47ba91461089357806389097a6a146108be5780638da5cb5b14610914578063947e81a21461096b57806395d89b41146109a65761025c565b80632fc11c0f116101d25780636b6216ad116101965780636b6216ad146107095780636cc919c81461074457806370a0823114610795578063715018a6146107fa57806376c46b7b1461081157806379502c551461083c5761025c565b80632fc11c0f14610590578063313ce567146105df5780633950935114610610578063494666b614610683578063626be567146106de5761025c565b8063185025ef11610219578063185025ef146103e55780631c58ce141461043c5780631c8249051461049757806323b872dd146104c25780632e1a7d4d146105555761025c565b80630266f0441461026157806306fdde031461028c578063095ea7b31461031c5780630a355d7d1461038f57806318160ddd146103ba5761025c565b3661025c57005b600080fd5b34801561026d57600080fd5b5061027661116a565b6040518082815260200191505060405180910390f35b34801561029857600080fd5b506102a1611171565b6040518080602001828103825283818151815260200191508051906020019080838360005b838110156102e15780820151818401526020810190506102c6565b50505050905090810190601f16801561030e5780820380516001836020036101000a031916815260200191505b509250505060405180910390f35b34801561032857600080fd5b506103756004803603604081101561033f57600080fd5b81019080803573ffffffffffffffffffffffffffffffffffffffff16906020019092919080359060200190929190505050611213565b604051808215151515815260200191505060405180910390f35b34801561039b57600080fd5b506103a4611231565b6040518082815260200191505060405180910390f35b3480156103c657600080fd5b506103cf611238565b6040518082815260200191505060405180910390f35b3480156103f157600080fd5b506103fa611242565b604051808273ffffffffffffffffffffffffffffffffffffffff1673ffffffffffffffffffffffffffffffffffffffff16815260200191505060405180910390f35b34801561044857600080fd5b506104956004803603604081101561045f57600080fd5b81019080803573ffffffffffffffffffffffffffffffffffffffff16906020019092919080359060200190929190505050611268565b005b3480156104a357600080fd5b506104ac611438565b6040518082815260200191505060405180910390f35b3480156104ce57600080fd5b5061053b600480360360608110156104e557600080fd5b81019080803573ffffffffffffffffffffffffffffffffffffffff169060200190929190803573ffffffffffffffffffffffffffffffffffffffff1690602001909291908035906020019092919050505061143f565b604051808215151515815260200191505060405180910390f35b34801561056157600080fd5b5061058e6004803603602081101561057857600080fd5b8101908080359060200190929190505050611518565b005b34801561059c57600080fd5b506105c9600480360360208110156105b357600080fd5b8101908080359060200190929190505050611a95565b6040518082815260200191505060405180910390f35b3480156105eb57600080fd5b506105f4611cc0565b604051808260ff1660ff16815260200191505060405180910390f35b34801561061c57600080fd5b506106696004803603604081101561063357600080fd5b81019080803573ffffffffffffffffffffffffffffffffffffffff16906020019092919080359060200190929190505050611cd7565b604051808215151515815260200191505060405180910390f35b34801561068f57600080fd5b506106dc600480360360408110156106a657600080fd5b81019080803573ffffffffffffffffffffffffffffffffffffffff16906020019092919080359060200190929190505050611d8a565b005b3480156106ea57600080fd5b506106f3611fb6565b6040518082815260200191505060405180910390f35b34801561071557600080fd5b506107426004803603602081101561072c57600080fd5b81019080803590602001909291905050506120c1565b005b34801561075057600080fd5b506107936004803603602081101561076757600080fd5b81019080803573ffffffffffffffffffffffffffffffffffffffff1690602001909291905050506121ab565b005b3480156107a157600080fd5b506107e4600480360360208110156107b857600080fd5b81019080803573ffffffffffffffffffffffffffffffffffffffff1690602001909291905050506122ba565b6040518082815260200191505060405180910390f35b34801561080657600080fd5b5061080f612303565b005b34801561081d57600080fd5b5061082661248e565b6040518082815260200191505060405180910390f35b34801561084857600080fd5b50610851612495565b604051808273ffffffffffffffffffffffffffffffffffffffff1673ffffffffffffffffffffffffffffffffffffffff16815260200191505060405180910390f35b34801561089f57600080fd5b506108a86124bc565b6040518082815260200191505060405180910390f35b3480156108ca57600080fd5b506108f7600480360360208110156108e157600080fd5b81019080803590602001909291905050506124c3565b604051808381526020018281526020019250505060405180910390f35b34801561092057600080fd5b506109296125a5565b604051808273ffffffffffffffffffffffffffffffffffffffff1673ffffffffffffffffffffffffffffffffffffffff16815260200191505060405180910390f35b34801561097757600080fd5b506109a46004803603602081101561098e57600080fd5b81019080803590602001909291905050506125cf565b005b3480156109b257600080fd5b506109bb6126a4565b6040518080602001828103825283818151815260200191508051906020019080838360005b838110156109fb5780820151818401526020810190506109e0565b50505050905090810190601f168015610a285780820380516001836020036101000a031916815260200191505b509250505060405180910390f35b348015610a4257600080fd5b50610a6f60048036036020811015610a5957600080fd5b8101908080359060200190929190505050612746565b604051808473ffffffffffffffffffffffffffffffffffffffff1673ffffffffffffffffffffffffffffffffffffffff1681526020018373ffffffffffffffffffffffffffffffffffffffff1673ffffffffffffffffffffffffffffffffffffffff168152602001828152602001935050505060405180910390f35b348015610af757600080fd5b50610b006127b1565b6040518082815260200191505060405180910390f35b348015610b2257600080fd5b50610b6f60048036036040811015610b3957600080fd5b81019080803573ffffffffffffffffffffffffffffffffffffffff169060200190929190803590602001909291905050506127b8565b604051808215151515815260200191505060405180910390f35b348015610b9557600080fd5b50610be260048036036040811015610bac57600080fd5b81019080803573ffffffffffffffffffffffffffffffffffffffff16906020019092919080359060200190929190505050612885565b604051808215151515815260200191505060405180910390f35b610c2860048036036020811015610c1257600080fd5b81019080803590602001909291905050506128a3565b005b348015610c3657600080fd5b50610c3f612db1565b6040518082815260200191505060405180910390f35b348015610c6157600080fd5b50610c8e60048036036020811015610c7857600080fd5b8101908080359060200190929190505050612db7565b005b610d4f600480360360c0811015610ca657600080fd5b8101908080359060200190929190803573ffffffffffffffffffffffffffffffffffffffff16906020019092919080359060200190929190803590602001909291908035906020019092919080359060200190640100000000811115610d0b57600080fd5b820183602082011115610d1d57600080fd5b80359060200191846001830284011164010000000083111715610d3f57600080fd5b90919293919293905050506140d9565b005b348015610d5d57600080fd5b50610d66615f09565b6040518082815260200191505060405180910390f35b348015610d8857600080fd5b50610deb60048036036040811015610d9f57600080fd5b81019080803573ffffffffffffffffffffffffffffffffffffffff169060200190929190803573ffffffffffffffffffffffffffffffffffffffff169060200190929190505050615f0f565b6040518082815260200191505060405180910390f35b348015610e0d57600080fd5b50610fcb600480360360c0811015610e2457600080fd5b81019080803573ffffffffffffffffffffffffffffffffffffffff169060200190929190803573ffffffffffffffffffffffffffffffffffffffff16906020019092919080359060200190640100000000811115610e8157600080fd5b820183602082011115610e9357600080fd5b80359060200191846001830284011164010000000083111715610eb557600080fd5b91908080601f016020809104026020016040519081016040528093929190818152602001838380828437600081840152601f19601f82011690508083019250505050505050919291929080359060200190640100000000811115610f1857600080fd5b820183602082011115610f2a57600080fd5b80359060200191846001830284011164010000000083111715610f4c57600080fd5b91908080601f016020809104026020016040519081016040528093929190818152602001838380828437600081840152601f19601f820116905080830192505050505050509192919290803560ff169060200190929190803573ffffffffffffffffffffffffffffffffffffffff169060200190929190505050615f96565b005b348015610fd957600080fd5b5061100660048036036020811015610ff057600080fd5b81019080803590602001909291905050506163d4565b6040518082815260200191505060405180910390f35b34801561102857600080fd5b5061106b6004803603602081101561103f57600080fd5b81019080803573ffffffffffffffffffffffffffffffffffffffff16906020019092919050505061641c565b005b34801561107957600080fd5b506110a66004803603602081101561109057600080fd5b810190808035906020019092919050505061662c565b6040518082815260200191505060405180910390f35b3480156110c857600080fd5b506110d1616674565b604051808273ffffffffffffffffffffffffffffffffffffffff1673ffffffffffffffffffffffffffffffffffffffff16815260200191505060405180910390f35b34801561111f57600080fd5b5061112861669a565b604051808273ffffffffffffffffffffffffffffffffffffffff1673ffffffffffffffffffffffffffffffffffffffff16815260200191505060405180910390f35b6101075481565b606060688054600181600116156101000203166002900480601f0160208091040260200160405190810160405280929190818152602001828054600181600116156101000203166002900480156112095780601f106111de57610100808354040283529160200191611209565b820191906000526020600020905b8154815290600101906020018083116111ec57829003601f168201915b5050505050905090565b60006112276112206166c0565b84846166c8565b6001905092915050565b6101055481565b6000606754905090565b60fd60009054906101000a900473ffffffffffffffffffffffffffffffffffffffff1681565b6112706166c0565b73ffffffffffffffffffffffffffffffffffffffff1660c960009054906101000a900473ffffffffffffffffffffffffffffffffffffffff1673ffffffffffffffffffffffffffffffffffffffff1614611332576040517f08c379a00000000000000000000000000000000000000000000000000000000081526004018080602001828103825260208152602001807f4f776e61626c653a2063616c6c6572206973206e6f7420746865206f776e657281525060200191505060405180910390fd5b609760009054906101000a900460ff166113b4576040517f08c379a000000000000000000000000000000000000000000000000000000000815260040180806020018281038252601f8152602001807f5265656e7472616e637947756172643a207265656e7472616e742063616c6c0081525060200191505060405180910390fd5b6000609760006101000a81548160ff0219169083151502179055506113e581610107546168bf90919063ffffffff16565b6101078190555061141960fe60009054906101000a900473ffffffffffffffffffffffffffffffffffffffff168383616909565b6001609760006101000a81548160ff0219169083151502179055505050565b6101025481565b600061144c848484616b02565b61150d846114586166c0565b6115088560405180606001604052806028815260200161831860289139606660008b73ffffffffffffffffffffffffffffffffffffffff1673ffffffffffffffffffffffffffffffffffffffff16815260200190815260200160002060006114be6166c0565b73ffffffffffffffffffffffffffffffffffffffff1673ffffffffffffffffffffffffffffffffffffffff16815260200190815260200160002054616dc79092919063ffffffff16565b6166c8565b600190509392505050565b60006101065442111561164557600061153082611a95565b905060006115fe6127106115f061010060009054906101000a900473ffffffffffffffffffffffffffffffffffffffff1673ffffffffffffffffffffffffffffffffffffffff166309956f666040518163ffffffff1660e01b815260040160206040518083038186803b1580156115a657600080fd5b505afa1580156115ba573d6000803e3d6000fd5b505050506040513d60208110156115d057600080fd5b810190808051906020019092919050505085616e8790919063ffffffff16565b616f0d90919063ffffffff16565b90506116168161010754616f5790919063ffffffff16565b610107819055506116338261010554616f5790919063ffffffff16565b61010581905550426101068190555050505b609760009054906101000a900460ff166116c7576040517f08c379a000000000000000000000000000000000000000000000000000000000815260040180806020018281038252601f8152602001807f5265656e7472616e637947756172643a207265656e7472616e742063616c6c0081525060200191505060405180910390fd5b6000609760006101000a81548160ff02191690831515021790555060006117176116ef611238565b6117096116fa611fb6565b86616e8790919063ffffffff16565b616f0d90919063ffffffff16565b90506117233384616fdf565b61010060009054906101000a900473ffffffffffffffffffffffffffffffffffffffff1673ffffffffffffffffffffffffffffffffffffffff1663ef3bac5e6040518163ffffffff1660e01b815260040160206040518083038186803b15801561178c57600080fd5b505afa1580156117a0573d6000803e3d6000fd5b505050506040513d60208110156117b657600080fd5b810190808051906020019092919050505073ffffffffffffffffffffffffffffffffffffffff1660fe60009054906101000a900473ffffffffffffffffffffffffffffffffffffffff1673ffffffffffffffffffffffffffffffffffffffff161415611a47576118ec60fe60009054906101000a900473ffffffffffffffffffffffffffffffffffffffff1661010060009054906101000a900473ffffffffffffffffffffffffffffffffffffffff1673ffffffffffffffffffffffffffffffffffffffff1663d1783fa86040518163ffffffff1660e01b815260040160206040518083038186803b1580156118ab57600080fd5b505afa1580156118bf573d6000803e3d6000fd5b505050506040513d60208110156118d557600080fd5b810190808051906020019092919050505083616909565b61010060009054906101000a900473ffffffffffffffffffffffffffffffffffffffff1673ffffffffffffffffffffffffffffffffffffffff1663d1783fa86040518163ffffffff1660e01b815260040160206040518083038186803b15801561195557600080fd5b505afa158015611969573d6000803e3d6000fd5b505050506040513d602081101561197f57600080fd5b810190808051906020019092919050505073ffffffffffffffffffffffffffffffffffffffff16632e1a7d4d826040518263ffffffff1660e01b815260040180828152602001915050600060405180830381600087803b1580156119e257600080fd5b505af11580156119f6573d6000803e3d6000fd5b505050503373ffffffffffffffffffffffffffffffffffffffff166108fc829081150290604051600060405180830381858888f19350505050158015611a40573d6000803e3d6000fd5b5050611a76565b611a7460fe60009054906101000a900473ffffffffffffffffffffffffffffffffffffffff163383616909565b505b6001609760006101000a81548160ff0219169083151502179055505050565b600061010654421115611cb6576000611aba61010654426168bf90919063ffffffff16565b90506000611baa8460fe60009054906101000a900473ffffffffffffffffffffffffffffffffffffffff1673ffffffffffffffffffffffffffffffffffffffff166370a08231306040518263ffffffff1660e01b8152600401808273ffffffffffffffffffffffffffffffffffffffff1673ffffffffffffffffffffffffffffffffffffffff16815260200191505060206040518083038186803b158015611b6157600080fd5b505afa158015611b75573d6000803e3d6000fd5b505050506040513d6020811015611b8b57600080fd5b81019080805190602001909291905050506168bf90919063ffffffff16565b9050600061010060009054906101000a900473ffffffffffffffffffffffffffffffffffffffff1673ffffffffffffffffffffffffffffffffffffffff1663c6dfa13f61010554846040518363ffffffff1660e01b8152600401808381526020018281526020019250505060206040518083038186803b158015611c2d57600080fd5b505afa158015611c41573d6000803e3d6000fd5b505050506040513d6020811015611c5757600080fd5b81019080805190602001909291905050509050611cac670de0b6b3a7640000611c9e85611c906101055486616e8790919063ffffffff16565b616e8790919063ffffffff16565b616f0d90919063ffffffff16565b9350505050611cbb565b600090505b919050565b6000606a60009054906101000a900460ff16905090565b6000611d80611ce46166c0565b84611d7b8560666000611cf56166c0565b73ffffffffffffffffffffffffffffffffffffffff1673ffffffffffffffffffffffffffffffffffffffff16815260200190815260200160002060008973ffffffffffffffffffffffffffffffffffffffff1673ffffffffffffffffffffffffffffffffffffffff16815260200190815260200160002054616f5790919063ffffffff16565b6166c8565b6001905092915050565b7fffffffffffffffffffffffffffffffffffffffffffffffffffffffffffffffff60fc541415611e22576040517f08c379a000000000000000000000000000000000000000000000000000000000815260040180806020018281038252601a8152602001807f6e6f742077697468696e20657865637574696f6e2073636f706500000000000081525060200191505060405180910390fd5b3373ffffffffffffffffffffffffffffffffffffffff1660fd60009054906101000a900473ffffffffffffffffffffffffffffffffffffffff1673ffffffffffffffffffffffffffffffffffffffff1614611ee5576040517f08c379a00000000000000000000000000000000000000000000000000000000081526004018080602001828103825260158152602001807f6e6f742066726f6d20746865207374726174656779000000000000000000000081525060200191505060405180910390fd5b600160fb5414611f5d576040517f08c379a000000000000000000000000000000000000000000000000000000000815260040180806020018281038252600c8152602001807f696e2065786563206c6f636b000000000000000000000000000000000000000081525060200191505060405180910390fd5b600260fb81905550611faa82610101600060fc54815260200190815260200160002060010160009054906101000a900473ffffffffffffffffffffffffffffffffffffffff1633846171a5565b600160fb819055505050565b60006120bc610107546120ae6101055460fe60009054906101000a900473ffffffffffffffffffffffffffffffffffffffff1673ffffffffffffffffffffffffffffffffffffffff166370a08231306040518263ffffffff1660e01b8152600401808273ffffffffffffffffffffffffffffffffffffffff1673ffffffffffffffffffffffffffffffffffffffff16815260200191505060206040518083038186803b15801561206557600080fd5b505afa158015612079573d6000803e3d6000fd5b505050506040513d602081101561208f57600080fd5b8101908080519060200190929190505050616f5790919063ffffffff16565b6168bf90919063ffffffff16565b905090565b6120c96166c0565b73ffffffffffffffffffffffffffffffffffffffff1660c960009054906101000a900473ffffffffffffffffffffffffffffffffffffffff1673ffffffffffffffffffffffffffffffffffffffff161461218b576040517f08c379a00000000000000000000000000000000000000000000000000000000081526004018080602001828103825260208152602001807f4f776e61626c653a2063616c6c6572206973206e6f7420746865206f776e657281525060200191505060405180910390fd5b6121a181610107546168bf90919063ffffffff16565b6101078190555050565b6121b36166c0565b73ffffffffffffffffffffffffffffffffffffffff1660c960009054906101000a900473ffffffffffffffffffffffffffffffffffffffff1673ffffffffffffffffffffffffffffffffffffffff1614612275576040517f08c379a00000000000000000000000000000000000000000000000000000000081526004018080602001828103825260208152602001807f4f776e61626c653a2063616c6c6572206973206e6f7420746865206f776e657281525060200191505060405180910390fd5b8061010060006101000a81548173ffffffffffffffffffffffffffffffffffffffff021916908373ffffffffffffffffffffffffffffffffffffffff16021790555050565b6000606560008373ffffffffffffffffffffffffffffffffffffffff1673ffffffffffffffffffffffffffffffffffffffff168152602001908152602001600020549050919050565b61230b6166c0565b73ffffffffffffffffffffffffffffffffffffffff1660c960009054906101000a900473ffffffffffffffffffffffffffffffffffffffff1673ffffffffffffffffffffffffffffffffffffffff16146123cd576040517f08c379a00000000000000000000000000000000000000000000000000000000081526004018080602001828103825260208152602001807f4f776e61626c653a2063616c6c6572206973206e6f7420746865206f776e657281525060200191505060405180910390fd5b600073ffffffffffffffffffffffffffffffffffffffff1660c960009054906101000a900473ffffffffffffffffffffffffffffffffffffffff1673ffffffffffffffffffffffffffffffffffffffff167f8be0079c531659141344cd1fd0a4f28419497f9722a3daafe3b4186f6b6457e060405160405180910390a3600060c960006101000a81548173ffffffffffffffffffffffffffffffffffffffff021916908373ffffffffffffffffffffffffffffffffffffffff160217905550565b6101045481565b61010060009054906101000a900473ffffffffffffffffffffffffffffffffffffffff1681565b6101035481565b6000806000610101600085815260200190815260200160002090508060000160009054906101000a900473ffffffffffffffffffffffffffffffffffffffff1673ffffffffffffffffffffffffffffffffffffffff1663783b6d60856040518263ffffffff1660e01b81526004018082815260200191505060206040518083038186803b15801561255357600080fd5b505afa158015612567573d6000803e3d6000fd5b505050506040513d602081101561257d57600080fd5b810190808051906020019092919050505061259b82600201546163d4565b9250925050915091565b600060c960009054906101000a900473ffffffffffffffffffffffffffffffffffffffff16905090565b6125d76166c0565b73ffffffffffffffffffffffffffffffffffffffff1660c960009054906101000a900473ffffffffffffffffffffffffffffffffffffffff1673ffffffffffffffffffffffffffffffffffffffff1614612699576040517f08c379a00000000000000000000000000000000000000000000000000000000081526004018080602001828103825260208152602001807f4f776e61626c653a2063616c6c6572206973206e6f7420746865206f776e657281525060200191505060405180910390fd5b806101038190555050565b606060698054600181600116156101000203166002900480601f01602080910402602001604051908101604052809291908181526020018280546001816001161561010002031660029004801561273c5780601f106127115761010080835404028352916020019161273c565b820191906000526020600020905b81548152906001019060200180831161271f57829003601f168201915b5050505050905090565b6101016020528060005260406000206000915090508060000160009054906101000a900473ffffffffffffffffffffffffffffffffffffffff16908060010160009054906101000a900473ffffffffffffffffffffffffffffffffffffffff16908060020154905083565b6101065481565b600061287b6127c56166c0565b84612876856040518060600160405280602581526020016183d860259139606660006127ef6166c0565b73ffffffffffffffffffffffffffffffffffffffff1673ffffffffffffffffffffffffffffffffffffffff16815260200190815260200160002060008a73ffffffffffffffffffffffffffffffffffffffff1673ffffffffffffffffffffffffffffffffffffffff16815260200190815260200160002054616dc79092919063ffffffff16565b6166c8565b6001905092915050565b60006128996128926166c0565b8484616b02565b6001905092915050565b8060003414612b905761010060009054906101000a900473ffffffffffffffffffffffffffffffffffffffff1673ffffffffffffffffffffffffffffffffffffffff1663ef3bac5e6040518163ffffffff1660e01b815260040160206040518083038186803b15801561291557600080fd5b505afa158015612929573d6000803e3d6000fd5b505050506040513d602081101561293f57600080fd5b810190808051906020019092919050505073ffffffffffffffffffffffffffffffffffffffff1660fe60009054906101000a900473ffffffffffffffffffffffffffffffffffffffff1673ffffffffffffffffffffffffffffffffffffffff1614612a12576040517f08c379a00000000000000000000000000000000000000000000000000000000081526004018080602001828103825260188152602001807f62617365546f6b656e206973206e6f7420774e6174697665000000000000000081525060200191505060405180910390fd5b348114612a87576040517f08c379a00000000000000000000000000000000000000000000000000000000081526004018080602001828103825260128152602001807f76616c756520213d206d73672e76616c7565000000000000000000000000000081525060200191505060405180910390fd5b61010060009054906101000a900473ffffffffffffffffffffffffffffffffffffffff1673ffffffffffffffffffffffffffffffffffffffff1663ef3bac5e6040518163ffffffff1660e01b815260040160206040518083038186803b158015612af057600080fd5b505afa158015612b04573d6000803e3d6000fd5b505050506040513d6020811015612b1a57600080fd5b810190808051906020019092919050505073ffffffffffffffffffffffffffffffffffffffff1663d0e30db0346040518263ffffffff1660e01b81526004016000604051808303818588803b158015612b7257600080fd5b505af1158015612b86573d6000803e3d6000fd5b5050505050612bbf565b612bbe60fe60009054906101000a900473ffffffffffffffffffffffffffffffffffffffff163330846171a5565b5b8161010654421115612ceb576000612bd682611a95565b90506000612ca4612710612c9661010060009054906101000a900473ffffffffffffffffffffffffffffffffffffffff1673ffffffffffffffffffffffffffffffffffffffff166309956f666040518163ffffffff1660e01b815260040160206040518083038186803b158015612c4c57600080fd5b505afa158015612c60573d6000803e3d6000fd5b505050506040513d6020811015612c7657600080fd5b810190808051906020019092919050505085616e8790919063ffffffff16565b616f0d90919063ffffffff16565b9050612cbc8161010754616f5790919063ffffffff16565b61010781905550612cd98261010554616f5790919063ffffffff16565b61010581905550426101068190555050505b609760009054906101000a900460ff16612d6d576040517f08c379a000000000000000000000000000000000000000000000000000000000815260040180806020018281038252601f8152602001807f5265656e7472616e637947756172643a207265656e7472616e742063616c6c0081525060200191505060405180910390fd5b6000609760006101000a81548160ff021916908315150217905550612d91836173d3565b6001609760006101000a81548160ff021916908315150217905550505050565b60fb5481565b3273ffffffffffffffffffffffffffffffffffffffff163373ffffffffffffffffffffffffffffffffffffffff1614612e58576040517f08c379a00000000000000000000000000000000000000000000000000000000081526004018080602001828103825260078152602001807f6e6f7420656f610000000000000000000000000000000000000000000000000081525060200191505060405180910390fd5b600061010654421115612f85576000612e7082611a95565b90506000612f3e612710612f3061010060009054906101000a900473ffffffffffffffffffffffffffffffffffffffff1673ffffffffffffffffffffffffffffffffffffffff166309956f666040518163ffffffff1660e01b815260040160206040518083038186803b158015612ee657600080fd5b505afa158015612efa573d6000803e3d6000fd5b505050506040513d6020811015612f1057600080fd5b810190808051906020019092919050505085616e8790919063ffffffff16565b616f0d90919063ffffffff16565b9050612f568161010754616f5790919063ffffffff16565b61010781905550612f738261010554616f5790919063ffffffff16565b61010581905550426101068190555050505b609760009054906101000a900460ff16613007576040517f08c379a000000000000000000000000000000000000000000000000000000000815260040180806020018281038252601f8152602001807f5265656e7472616e637947756172643a207265656e7472616e742063616c6c0081525060200191505060405180910390fd5b6000609760006101000a81548160ff0219169083151502179055507fffffffffffffffffffffffffffffffffffffffffffffffffffffffffffffffff6101035414156130bb576040517f08c379a00000000000000000000000000000000000000000000000000000000081526004018080602001828103825260148152602001807f776f726b3a20706f6f6c4964206e6f742073657400000000000000000000000081525060200191505060405180910390fd5b600061010160008481526020019081526020016000209050600081600201541161314d576040517f08c379a00000000000000000000000000000000000000000000000000000000081526004018080602001828103825260078152602001807f6e6f20646562740000000000000000000000000000000000000000000000000081525060200191505060405180910390fd5b60006131588461743e565b905060008260000160009054906101000a900473ffffffffffffffffffffffffffffffffffffffff1673ffffffffffffffffffffffffffffffffffffffff1663783b6d60866040518263ffffffff1660e01b81526004018082815260200191505060206040518083038186803b1580156131d157600080fd5b505afa1580156131e5573d6000803e3d6000fd5b505050506040513d60208110156131fb57600080fd5b81019080805190602001909291905050509050600061010060009054906101000a900473ffffffffffffffffffffffffffffffffffffffff1673ffffffffffffffffffffffffffffffffffffffff166313f6321b8560000160009054906101000a900473ffffffffffffffffffffffffffffffffffffffff16856040518363ffffffff1660e01b8152600401808373ffffffffffffffffffffffffffffffffffffffff1673ffffffffffffffffffffffffffffffffffffffff1681526020018281526020019250505060206040518083038186803b1580156132dc57600080fd5b505afa1580156132f0573d6000803e3d6000fd5b505050506040513d602081101561330657600080fd5b8101908080519060200190929190505050905061332e61271084616e8790919063ffffffff16565b6133418284616e8790919063ffffffff16565b106133b4576040517f08c379a000000000000000000000000000000000000000000000000000000000815260040180806020018281038252600f8152602001807f63616e2774206c6971756964617465000000000000000000000000000000000081525060200191505060405180910390fd5b600060fe60009054906101000a900473ffffffffffffffffffffffffffffffffffffffff1673ffffffffffffffffffffffffffffffffffffffff166370a08231306040518263ffffffff1660e01b8152600401808273ffffffffffffffffffffffffffffffffffffffff1673ffffffffffffffffffffffffffffffffffffffff16815260200191505060206040518083038186803b15801561345557600080fd5b505afa158015613469573d6000803e3d6000fd5b505050506040513d602081101561347f57600080fd5b810190808051906020019092919050505090508460000160009054906101000a900473ffffffffffffffffffffffffffffffffffffffff1673ffffffffffffffffffffffffffffffffffffffff1663415f1240886040518263ffffffff1660e01b815260040180828152602001915050600060405180830381600087803b15801561350957600080fd5b505af115801561351d573d6000803e3d6000fd5b50505050600061360f8260fe60009054906101000a900473ffffffffffffffffffffffffffffffffffffffff1673ffffffffffffffffffffffffffffffffffffffff166370a08231306040518263ffffffff1660e01b8152600401808273ffffffffffffffffffffffffffffffffffffffff1673ffffffffffffffffffffffffffffffffffffffff16815260200191505060206040518083038186803b1580156135c657600080fd5b505afa1580156135da573d6000803e3d6000fd5b505050506040513d60208110156135f057600080fd5b81019080805190602001909291905050506168bf90919063ffffffff16565b905060006136dd6127106136cf61010060009054906101000a900473ffffffffffffffffffffffffffffffffffffffff1673ffffffffffffffffffffffffffffffffffffffff166328ae433e6040518163ffffffff1660e01b815260040160206040518083038186803b15801561368557600080fd5b505afa158015613699573d6000803e3d6000fd5b505050506040513d60208110156136af57600080fd5b810190808051906020019092919050505085616e8790919063ffffffff16565b616f0d90919063ffffffff16565b905060006136f482846168bf90919063ffffffff16565b90506000821115613a515761010060009054906101000a900473ffffffffffffffffffffffffffffffffffffffff1673ffffffffffffffffffffffffffffffffffffffff1663ef3bac5e6040518163ffffffff1660e01b815260040160206040518083038186803b15801561376857600080fd5b505afa15801561377c573d6000803e3d6000fd5b505050506040513d602081101561379257600080fd5b810190808051906020019092919050505073ffffffffffffffffffffffffffffffffffffffff1660fe60009054906101000a900473ffffffffffffffffffffffffffffffffffffffff1673ffffffffffffffffffffffffffffffffffffffff161415613a22576138c860fe60009054906101000a900473ffffffffffffffffffffffffffffffffffffffff1661010060009054906101000a900473ffffffffffffffffffffffffffffffffffffffff1673ffffffffffffffffffffffffffffffffffffffff1663d1783fa86040518163ffffffff1660e01b815260040160206040518083038186803b15801561388757600080fd5b505afa15801561389b573d6000803e3d6000fd5b505050506040513d60208110156138b157600080fd5b810190808051906020019092919050505084616909565b61010060009054906101000a900473ffffffffffffffffffffffffffffffffffffffff1673ffffffffffffffffffffffffffffffffffffffff1663d1783fa86040518163ffffffff1660e01b815260040160206040518083038186803b15801561393157600080fd5b505afa158015613945573d6000803e3d6000fd5b505050506040513d602081101561395b57600080fd5b810190808051906020019092919050505073ffffffffffffffffffffffffffffffffffffffff16632e1a7d4d836040518263ffffffff1660e01b815260040180828152602001915050600060405180830381600087803b1580156139be57600080fd5b505af11580156139d2573d6000803e3d6000fd5b505050503373ffffffffffffffffffffffffffffffffffffffff166108fc839081150290604051600060405180830381858888f19350505050158015613a1c573d6000803e3d6000fd5b50613a50565b613a4f60fe60009054906101000a900473ffffffffffffffffffffffffffffffffffffffff163384616909565b5b5b6000878211613a61576000613a65565b8782035b90506000811115613de65761010060009054906101000a900473ffffffffffffffffffffffffffffffffffffffff1673ffffffffffffffffffffffffffffffffffffffff1663ef3bac5e6040518163ffffffff1660e01b815260040160206040518083038186803b158015613ad957600080fd5b505afa158015613aed573d6000803e3d6000fd5b505050506040513d6020811015613b0357600080fd5b810190808051906020019092919050505073ffffffffffffffffffffffffffffffffffffffff1660fe60009054906101000a900473ffffffffffffffffffffffffffffffffffffffff1673ffffffffffffffffffffffffffffffffffffffff161415613d9357613c3960fe60009054906101000a900473ffffffffffffffffffffffffffffffffffffffff1661010060009054906101000a900473ffffffffffffffffffffffffffffffffffffffff1673ffffffffffffffffffffffffffffffffffffffff1663d1783fa86040518163ffffffff1660e01b815260040160206040518083038186803b158015613bf857600080fd5b505afa158015613c0c573d6000803e3d6000fd5b505050506040513d6020811015613c2257600080fd5b810190808051906020019092919050505083616909565b61010060009054906101000a900473ffffffffffffffffffffffffffffffffffffffff1673ffffffffffffffffffffffffffffffffffffffff1663d1783fa86040518163ffffffff1660e01b815260040160206040518083038186803b158015613ca257600080fd5b505afa158015613cb6573d6000803e3d6000fd5b505050506040513d6020811015613ccc57600080fd5b810190808051906020019092919050505073ffffffffffffffffffffffffffffffffffffffff16632e1a7d4d826040518263ffffffff1660e01b815260040180828152602001915050600060405180830381600087803b158015613d2f57600080fd5b505af1158015613d43573d6000803e3d6000fd5b505050503373ffffffffffffffffffffffffffffffffffffffff166108fc829081150290604051600060405180830381858888f19350505050158015613d8d573d6000803e3d6000fd5b50613de5565b613de460fe60009054906101000a900473ffffffffffffffffffffffffffffffffffffffff168a60010160009054906101000a900473ffffffffffffffffffffffffffffffffffffffff1683616909565b5b5b61010060009054906101000a900473ffffffffffffffffffffffffffffffffffffffff1673ffffffffffffffffffffffffffffffffffffffff1663bfbbd53f6040518163ffffffff1660e01b815260040160206040518083038186803b158015613e4f57600080fd5b505afa158015613e63573d6000803e3d6000fd5b505050506040513d6020811015613e7957600080fd5b810190808051906020019092919050505073ffffffffffffffffffffffffffffffffffffffff1663cc6dbc278a60010160009054906101000a900473ffffffffffffffffffffffffffffffffffffffff16610103546040518363ffffffff1660e01b8152600401808373ffffffffffffffffffffffffffffffffffffffff1673ffffffffffffffffffffffffffffffffffffffff16815260200182815260200192505050600060405180830381600087803b158015613f3757600080fd5b505af1158015613f4b573d6000803e3d6000fd5b5050505060ff60009054906101000a900473ffffffffffffffffffffffffffffffffffffffff1673ffffffffffffffffffffffffffffffffffffffff16639dc29fac30613fd93060ff60009054906101000a900473ffffffffffffffffffffffffffffffffffffffff1673ffffffffffffffffffffffffffffffffffffffff1661750990919063ffffffff16565b6040518363ffffffff1660e01b8152600401808373ffffffffffffffffffffffffffffffffffffffff1673ffffffffffffffffffffffffffffffffffffffff16815260200182815260200192505050600060405180830381600087803b15801561404257600080fd5b505af1158015614056573d6000803e3d6000fd5b505050503373ffffffffffffffffffffffffffffffffffffffff168b7fa150a1ba7e1c4b72a15f8cb872406ce63950404709b67fbfe52b36792f483a398584604051808381526020018281526020019250505060405180910390a35050505050505050506001609760006101000a81548160ff0219169083151502179055505050565b3273ffffffffffffffffffffffffffffffffffffffff163373ffffffffffffffffffffffffffffffffffffffff161461417a576040517f08c379a00000000000000000000000000000000000000000000000000000000081526004018080602001828103825260078152602001807f6e6f7420656f610000000000000000000000000000000000000000000000000081525060200191505060405180910390fd5b84600034146144675761010060009054906101000a900473ffffffffffffffffffffffffffffffffffffffff1673ffffffffffffffffffffffffffffffffffffffff1663ef3bac5e6040518163ffffffff1660e01b815260040160206040518083038186803b1580156141ec57600080fd5b505afa158015614200573d6000803e3d6000fd5b505050506040513d602081101561421657600080fd5b810190808051906020019092919050505073ffffffffffffffffffffffffffffffffffffffff1660fe60009054906101000a900473ffffffffffffffffffffffffffffffffffffffff1673ffffffffffffffffffffffffffffffffffffffff16146142e9576040517f08c379a00000000000000000000000000000000000000000000000000000000081526004018080602001828103825260188152602001807f62617365546f6b656e206973206e6f7420774e6174697665000000000000000081525060200191505060405180910390fd5b34811461435e576040517f08c379a00000000000000000000000000000000000000000000000000000000081526004018080602001828103825260128152602001807f76616c756520213d206d73672e76616c7565000000000000000000000000000081525060200191505060405180910390fd5b61010060009054906101000a900473ffffffffffffffffffffffffffffffffffffffff1673ffffffffffffffffffffffffffffffffffffffff1663ef3bac5e6040518163ffffffff1660e01b815260040160206040518083038186803b1580156143c757600080fd5b505afa1580156143db573d6000803e3d6000fd5b505050506040513d60208110156143f157600080fd5b810190808051906020019092919050505073ffffffffffffffffffffffffffffffffffffffff1663d0e30db0346040518263ffffffff1660e01b81526004016000604051808303818588803b15801561444957600080fd5b505af115801561445d573d6000803e3d6000fd5b5050505050614496565b61449560fe60009054906101000a900473ffffffffffffffffffffffffffffffffffffffff163330846171a5565b5b85610106544211156145c25760006144ad82611a95565b9050600061457b61271061456d61010060009054906101000a900473ffffffffffffffffffffffffffffffffffffffff1673ffffffffffffffffffffffffffffffffffffffff166309956f666040518163ffffffff1660e01b815260040160206040518083038186803b15801561452357600080fd5b505afa158015614537573d6000803e3d6000fd5b505050506040513d602081101561454d57600080fd5b810190808051906020019092919050505085616e8790919063ffffffff16565b616f0d90919063ffffffff16565b90506145938161010754616f5790919063ffffffff16565b610107819055506145b08261010554616f5790919063ffffffff16565b61010581905550426101068190555050505b609760009054906101000a900460ff16614644576040517f08c379a000000000000000000000000000000000000000000000000000000000815260040180806020018281038252601f8152602001807f5265656e7472616e637947756172643a207265656e7472616e742063616c6c0081525060200191505060405180910390fd5b6000609760006101000a81548160ff0219169083151502179055507fffffffffffffffffffffffffffffffffffffffffffffffffffffffffffffffff6101035414156146f8576040517f08c379a00000000000000000000000000000000000000000000000000000000081526004018080602001828103825260148152602001807f776f726b3a20706f6f6c4964206e6f742073657400000000000000000000000081525060200191505060405180910390fd5b60008914156147c65761010260008154809291906001019190505598508761010160008b815260200190815260200160002060000160006101000a81548173ffffffffffffffffffffffffffffffffffffffff021916908373ffffffffffffffffffffffffffffffffffffffff1602179055503361010160008b815260200190815260200160002060010160006101000a81548173ffffffffffffffffffffffffffffffffffffffff021916908373ffffffffffffffffffffffffffffffffffffffff160217905550614c3f565b61010254891061483e576040517f08c379a000000000000000000000000000000000000000000000000000000000815260040180806020018281038252600f8152602001807f62616420706f736974696f6e206964000000000000000000000000000000000081525060200191505060405180910390fd5b8773ffffffffffffffffffffffffffffffffffffffff1661010160008b815260200190815260200160002060000160009054906101000a900473ffffffffffffffffffffffffffffffffffffffff1673ffffffffffffffffffffffffffffffffffffffff1614614916576040517f08c379a00000000000000000000000000000000000000000000000000000000081526004018080602001828103825260138152602001807f62616420706f736974696f6e20776f726b65720000000000000000000000000081525060200191505060405180910390fd5b3373ffffffffffffffffffffffffffffffffffffffff1661010160008b815260200190815260200160002060010160009054906101000a900473ffffffffffffffffffffffffffffffffffffffff1673ffffffffffffffffffffffffffffffffffffffff16146149ee576040517f08c379a00000000000000000000000000000000000000000000000000000000081526004018080602001828103825260128152602001807f6e6f7420706f736974696f6e206f776e6572000000000000000000000000000081525060200191505060405180910390fd5b61010060009054906101000a900473ffffffffffffffffffffffffffffffffffffffff1673ffffffffffffffffffffffffffffffffffffffff1663bfbbd53f6040518163ffffffff1660e01b815260040160206040518083038186803b158015614a5757600080fd5b505afa158015614a6b573d6000803e3d6000fd5b505050506040513d6020811015614a8157600080fd5b810190808051906020019092919050505073ffffffffffffffffffffffffffffffffffffffff1663cc6dbc2733610103546040518363ffffffff1660e01b8152600401808373ffffffffffffffffffffffffffffffffffffffff1673ffffffffffffffffffffffffffffffffffffffff16815260200182815260200192505050600060405180830381600087803b158015614b1b57600080fd5b505af1158015614b2f573d6000803e3d6000fd5b5050505060ff60009054906101000a900473ffffffffffffffffffffffffffffffffffffffff1673ffffffffffffffffffffffffffffffffffffffff16639dc29fac30614bbd3060ff60009054906101000a900473ffffffffffffffffffffffffffffffffffffffff1673ffffffffffffffffffffffffffffffffffffffff1661750990919063ffffffff16565b6040518363ffffffff1660e01b8152600401808373ffffffffffffffffffffffffffffffffffffffff1673ffffffffffffffffffffffffffffffffffffffff16815260200182815260200192505050600060405180830381600087803b158015614c2657600080fd5b505af1158015614c3a573d6000803e3d6000fd5b505050505b887f73c4ef442856bea52a6b34a83f35484ee65828010254ec27766c5a8c13db6c84876040518082815260200191505060405180910390a28860fc8190555083836040811015614c8e57600080fd5b81019080803573ffffffffffffffffffffffffffffffffffffffff16906020019092919080359060200190640100000000811115614ccb57600080fd5b820183602082011115614cdd57600080fd5b80359060200191846001830284011164010000000083111715614cff57600080fd5b91908080601f016020809104026020016040519081016040528093929190818152602001838380828437600081840152601f19601f8201169050808301925050505050505091929192905050508191505060fd60008291906101000a81548173ffffffffffffffffffffffffffffffffffffffff021916908373ffffffffffffffffffffffffffffffffffffffff1602179055505061010060009054906101000a900473ffffffffffffffffffffffffffffffffffffffff1673ffffffffffffffffffffffffffffffffffffffff1663aa156645896040518263ffffffff1660e01b8152600401808273ffffffffffffffffffffffffffffffffffffffff1673ffffffffffffffffffffffffffffffffffffffff16815260200191505060206040518083038186803b158015614e3457600080fd5b505afa158015614e48573d6000803e3d6000fd5b505050506040513d6020811015614e5e57600080fd5b8101908080519060200190929190505050614ee1576040517f08c379a000000000000000000000000000000000000000000000000000000000815260040180806020018281038252600c8152602001807f6e6f74206120776f726b6572000000000000000000000000000000000000000081525060200191505060405180910390fd5b6000861480614fc6575061010060009054906101000a900473ffffffffffffffffffffffffffffffffffffffff1673ffffffffffffffffffffffffffffffffffffffff16620237f0896040518263ffffffff1660e01b8152600401808273ffffffffffffffffffffffffffffffffffffffff1673ffffffffffffffffffffffffffffffffffffffff16815260200191505060206040518083038186803b158015614f8a57600080fd5b505afa158015614f9e573d6000803e3d6000fd5b505050506040513d6020811015614fb457600080fd5b81019080805190602001909291905050505b615038576040517f08c379a000000000000000000000000000000000000000000000000000000000815260040180806020018281038252601b8152602001807f776f726b6572206e6f7420616363657074206d6f72652064656274000000000081525060200191505060405180910390fd5b6000615055876150478c61743e565b616f5790919063ffffffff16565b905060008061506d898b616f5790919063ffffffff16565b905060fe60009054906101000a900473ffffffffffffffffffffffffffffffffffffffff1673ffffffffffffffffffffffffffffffffffffffff166370a08231306040518263ffffffff1660e01b8152600401808273ffffffffffffffffffffffffffffffffffffffff1673ffffffffffffffffffffffffffffffffffffffff16815260200191505060206040518083038186803b15801561510e57600080fd5b505afa158015615122573d6000803e3d6000fd5b505050506040513d602081101561513857600080fd5b81019080805190602001909291905050508111156151be576040517f08c379a000000000000000000000000000000000000000000000000000000000815260040180806020018281038252601f8152602001807f696e73756666696369656e742066756e647320696e20746865207661756c740081525060200191505060405180910390fd5b60006152ac8260fe60009054906101000a900473ffffffffffffffffffffffffffffffffffffffff1673ffffffffffffffffffffffffffffffffffffffff166370a08231306040518263ffffffff1660e01b8152600401808273ffffffffffffffffffffffffffffffffffffffff1673ffffffffffffffffffffffffffffffffffffffff16815260200191505060206040518083038186803b15801561526357600080fd5b505afa158015615277573d6000803e3d6000fd5b505050506040513d602081101561528d57600080fd5b81019080805190602001909291905050506168bf90919063ffffffff16565b905060fe60009054906101000a900473ffffffffffffffffffffffffffffffffffffffff1673ffffffffffffffffffffffffffffffffffffffff1663a9059cbb8d846040518363ffffffff1660e01b8152600401808373ffffffffffffffffffffffffffffffffffffffff1673ffffffffffffffffffffffffffffffffffffffff16815260200182815260200192505050602060405180830381600087803b15801561535757600080fd5b505af115801561536b573d6000803e3d6000fd5b505050506040513d602081101561538157600080fd5b8101908080519060200190929190505050508b73ffffffffffffffffffffffffffffffffffffffff166348db8cc48e33878c8c6040518663ffffffff1660e01b8152600401808681526020018573ffffffffffffffffffffffffffffffffffffffff1673ffffffffffffffffffffffffffffffffffffffff168152602001848152602001806020018281038252848482818152602001925080828437600081840152601f19601f8201169050808301925050509650505050505050600060405180830381600087803b15801561545657600080fd5b505af115801561546a573d6000803e3d6000fd5b5050505061555a8160fe60009054906101000a900473ffffffffffffffffffffffffffffffffffffffff1673ffffffffffffffffffffffffffffffffffffffff166370a08231306040518263ffffffff1660e01b8152600401808273ffffffffffffffffffffffffffffffffffffffff1673ffffffffffffffffffffffffffffffffffffffff16815260200191505060206040518083038186803b15801561551157600080fd5b505afa158015615525573d6000803e3d6000fd5b505050506040513d602081101561553b57600080fd5b81019080805190602001909291905050506168bf90919063ffffffff16565b9250505060006155738361556e848b6175cb565b6175cb565b905061558881846168bf90919063ffffffff16565b92506000831115615ada5761010060009054906101000a900473ffffffffffffffffffffffffffffffffffffffff1673ffffffffffffffffffffffffffffffffffffffff1663e1ed42866040518163ffffffff1660e01b815260040160206040518083038186803b1580156155fc57600080fd5b505afa158015615610573d6000803e3d6000fd5b505050506040513d602081101561562657600080fd5b81019080805190602001909291905050508310156156ac576040517f08c379a00000000000000000000000000000000000000000000000000000000081526004018080602001828103825260138152602001807f746f6f20736d616c6c20646562742073697a650000000000000000000000000081525060200191505060405180910390fd5b60008b73ffffffffffffffffffffffffffffffffffffffff1663783b6d608e6040518263ffffffff1660e01b81526004018082815260200191505060206040518083038186803b1580156156ff57600080fd5b505afa158015615713573d6000803e3d6000fd5b505050506040513d602081101561572957600080fd5b81019080805190602001909291905050509050600061010060009054906101000a900473ffffffffffffffffffffffffffffffffffffffff1673ffffffffffffffffffffffffffffffffffffffff1663ad58e5738e876040518363ffffffff1660e01b8152600401808373ffffffffffffffffffffffffffffffffffffffff1673ffffffffffffffffffffffffffffffffffffffff1681526020018281526020019250505060206040518083038186803b1580156157e657600080fd5b505afa1580156157fa573d6000803e3d6000fd5b505050506040513d602081101561581057600080fd5b8101908080519060200190929190505050905061583861271086616e8790919063ffffffff16565b61584b8284616e8790919063ffffffff16565b10156158bf576040517f08c379a000000000000000000000000000000000000000000000000000000000815260040180806020018281038252600f8152602001807f62616420776f726b20666163746f72000000000000000000000000000000000081525060200191505060405180910390fd5b60ff60009054906101000a900473ffffffffffffffffffffffffffffffffffffffff1673ffffffffffffffffffffffffffffffffffffffff166340c10f1930876040518363ffffffff1660e01b8152600401808373ffffffffffffffffffffffffffffffffffffffff1673ffffffffffffffffffffffffffffffffffffffff16815260200182815260200192505050600060405180830381600087803b15801561596857600080fd5b505af115801561597c573d6000803e3d6000fd5b5050505061010060009054906101000a900473ffffffffffffffffffffffffffffffffffffffff1673ffffffffffffffffffffffffffffffffffffffff1663bfbbd53f6040518163ffffffff1660e01b815260040160206040518083038186803b1580156159e957600080fd5b505afa1580156159fd573d6000803e3d6000fd5b505050506040513d6020811015615a1357600080fd5b810190808051906020019092919050505073ffffffffffffffffffffffffffffffffffffffff16630efe6a8b3361010354886040518463ffffffff1660e01b8152600401808473ffffffffffffffffffffffffffffffffffffffff1673ffffffffffffffffffffffffffffffffffffffff1681526020018381526020018281526020019350505050600060405180830381600087803b158015615ab557600080fd5b505af1158015615ac9573d6000803e3d6000fd5b50505050615ad78e866175e4565b50505b80821115615e775761010060009054906101000a900473ffffffffffffffffffffffffffffffffffffffff1673ffffffffffffffffffffffffffffffffffffffff1663ef3bac5e6040518163ffffffff1660e01b815260040160206040518083038186803b158015615b4b57600080fd5b505afa158015615b5f573d6000803e3d6000fd5b505050506040513d6020811015615b7557600080fd5b810190808051906020019092919050505073ffffffffffffffffffffffffffffffffffffffff1660fe60009054906101000a900473ffffffffffffffffffffffffffffffffffffffff1673ffffffffffffffffffffffffffffffffffffffff161415615e3757615cbd60fe60009054906101000a900473ffffffffffffffffffffffffffffffffffffffff1661010060009054906101000a900473ffffffffffffffffffffffffffffffffffffffff1673ffffffffffffffffffffffffffffffffffffffff1663d1783fa86040518163ffffffff1660e01b815260040160206040518083038186803b158015615c6a57600080fd5b505afa158015615c7e573d6000803e3d6000fd5b505050506040513d6020811015615c9457600080fd5b8101908080519060200190929190505050615cb884866168bf90919063ffffffff16565b616909565b61010060009054906101000a900473ffffffffffffffffffffffffffffffffffffffff1673ffffffffffffffffffffffffffffffffffffffff1663d1783fa86040518163ffffffff1660e01b815260040160206040518083038186803b158015615d2657600080fd5b505afa158015615d3a573d6000803e3d6000fd5b505050506040513d6020811015615d5057600080fd5b810190808051906020019092919050505073ffffffffffffffffffffffffffffffffffffffff16632e1a7d4d615d8f83856168bf90919063ffffffff16565b6040518263ffffffff1660e01b815260040180828152602001915050600060405180830381600087803b158015615dc557600080fd5b505af1158015615dd9573d6000803e3d6000fd5b505050503373ffffffffffffffffffffffffffffffffffffffff166108fc615e0a83856168bf90919063ffffffff16565b9081150290604051600060405180830381858888f19350505050158015615e35573d6000803e3d6000fd5b505b615e7660fe60009054906101000a900473ffffffffffffffffffffffffffffffffffffffff1633615e7184866168bf90919063ffffffff16565b616909565b5b7fffffffffffffffffffffffffffffffffffffffffffffffffffffffffffffffff60fc81905550600160fd60006101000a81548173ffffffffffffffffffffffffffffffffffffffff021916908373ffffffffffffffffffffffffffffffffffffffff1602179055505050506001609760006101000a81548160ff021916908315150217905550505050505050505050565b60fc5481565b6000606660008473ffffffffffffffffffffffffffffffffffffffff1673ffffffffffffffffffffffffffffffffffffffff16815260200190815260200160002060008373ffffffffffffffffffffffffffffffffffffffff1673ffffffffffffffffffffffffffffffffffffffff16815260200190815260200160002054905092915050565b600060019054906101000a900460ff1680615fb55750615fb46176a0565b5b80615fcc57506000809054906101000a900460ff16155b616021576040517f08c379a000000000000000000000000000000000000000000000000000000000815260040180806020018281038252602e815260200180618340602e913960400191505060405180910390fd5b60008060019054906101000a900460ff161590508015616071576001600060016101000a81548160ff02191690831515021790555060016000806101000a81548160ff0219169083151502179055505b6160796176b7565b6160816177c6565b61608b85856178cd565b616094836179e0565b6001610102819055508661010060006101000a81548173ffffffffffffffffffffffffffffffffffffffff021916908373ffffffffffffffffffffffffffffffffffffffff16021790555042610106819055508560fe60006101000a81548173ffffffffffffffffffffffffffffffffffffffff021916908373ffffffffffffffffffffffffffffffffffffffff1602179055507fffffffffffffffffffffffffffffffffffffffffffffffffffffffffffffffff610103819055508160ff60006101000a81548173ffffffffffffffffffffffffffffffffffffffff021916908373ffffffffffffffffffffffffffffffffffffffff16021790555060ff60009054906101000a900473ffffffffffffffffffffffffffffffffffffffff1673ffffffffffffffffffffffffffffffffffffffff1663095ea7b361010060009054906101000a900473ffffffffffffffffffffffffffffffffffffffff1673ffffffffffffffffffffffffffffffffffffffff1663bfbbd53f6040518163ffffffff1660e01b815260040160206040518083038186803b15801561623857600080fd5b505afa15801561624c573d6000803e3d6000fd5b505050506040513d602081101561626257600080fd5b81019080805190602001909291905050507fffffffffffffffffffffffffffffffffffffffffffffffffffffffffffffffff6040518363ffffffff1660e01b8152600401808373ffffffffffffffffffffffffffffffffffffffff1673ffffffffffffffffffffffffffffffffffffffff16815260200182815260200192505050602060405180830381600087803b1580156162fd57600080fd5b505af1158015616311573d6000803e3d6000fd5b505050506040513d602081101561632757600080fd5b810190808051906020019092919050505050600160fb819055507fffffffffffffffffffffffffffffffffffffffffffffffffffffffffffffffff60fc81905550600160fd60006101000a81548173ffffffffffffffffffffffffffffffffffffffff021916908373ffffffffffffffffffffffffffffffffffffffff16021790555080156163cb5760008060016101000a81548160ff0219169083151502179055505b50505050505050565b6000806101045414156163e957819050616417565b616414610104546164066101055485616e8790919063ffffffff16565b616f0d90919063ffffffff16565b90505b919050565b6164246166c0565b73ffffffffffffffffffffffffffffffffffffffff1660c960009054906101000a900473ffffffffffffffffffffffffffffffffffffffff1673ffffffffffffffffffffffffffffffffffffffff16146164e6576040517f08c379a00000000000000000000000000000000000000000000000000000000081526004018080602001828103825260208152602001807f4f776e61626c653a2063616c6c6572206973206e6f7420746865206f776e657281525060200191505060405180910390fd5b600073ffffffffffffffffffffffffffffffffffffffff168173ffffffffffffffffffffffffffffffffffffffff16141561656c576040517f08c379a00000000000000000000000000000000000000000000000000000000081526004018080602001828103825260268152602001806182896026913960400191505060405180910390fd5b8073ffffffffffffffffffffffffffffffffffffffff1660c960009054906101000a900473ffffffffffffffffffffffffffffffffffffffff1673ffffffffffffffffffffffffffffffffffffffff167f8be0079c531659141344cd1fd0a4f28419497f9722a3daafe3b4186f6b6457e060405160405180910390a38060c960006101000a81548173ffffffffffffffffffffffffffffffffffffffff021916908373ffffffffffffffffffffffffffffffffffffffff16021790555050565b6000806101045414156166415781905061666f565b61666c6101055461665e6101045485616e8790919063ffffffff16565b616f0d90919063ffffffff16565b90505b919050565b60ff60009054906101000a900473ffffffffffffffffffffffffffffffffffffffff1681565b60fe60009054906101000a900473ffffffffffffffffffffffffffffffffffffffff1681565b600033905090565b600073ffffffffffffffffffffffffffffffffffffffff168373ffffffffffffffffffffffffffffffffffffffff16141561674e576040517f08c379a00000000000000000000000000000000000000000000000000000000081526004018080602001828103825260248152602001806183b46024913960400191505060405180910390fd5b600073ffffffffffffffffffffffffffffffffffffffff168273ffffffffffffffffffffffffffffffffffffffff1614156167d4576040517f08c379a00000000000000000000000000000000000000000000000000000000081526004018080602001828103825260228152602001806182af6022913960400191505060405180910390fd5b80606660008573ffffffffffffffffffffffffffffffffffffffff1673ffffffffffffffffffffffffffffffffffffffff16815260200190815260200160002060008473ffffffffffffffffffffffffffffffffffffffff1673ffffffffffffffffffffffffffffffffffffffff168152602001908152602001600020819055508173ffffffffffffffffffffffffffffffffffffffff168373ffffffffffffffffffffffffffffffffffffffff167f8c5be1e5ebec7d5bd14f71427d1e84f3dd0314c0f7b2291e5b200ac8c7c3b925836040518082815260200191505060405180910390a3505050565b600061690183836040518060400160405280601e81526020017f536166654d6174683a207375627472616374696f6e206f766572666c6f770000815250616dc7565b905092915050565b600060608473ffffffffffffffffffffffffffffffffffffffff1663a9059cbb8585604051602401808373ffffffffffffffffffffffffffffffffffffffff1673ffffffffffffffffffffffffffffffffffffffff168152602001828152602001925050506040516020818303038152906040529060e01b6020820180517bffffffffffffffffffffffffffffffffffffffffffffffffffffffff83818316178352505050506040518082805190602001908083835b602083106169e257805182526020820191506020810190506020830392506169bf565b6001836020036101000a0380198251168184511680821785525050505050509050019150506000604051808303816000865af19150503d8060008114616a44576040519150601f19603f3d011682016040523d82523d6000602084013e616a49565b606091505b5091509150818015616a895750600081511480616a885750808060200190516020811015616a7657600080fd5b81019080805190602001909291905050505b5b616afb576040517f08c379a000000000000000000000000000000000000000000000000000000000815260040180806020018281038252600d8152602001807f21736166655472616e736665720000000000000000000000000000000000000081525060200191505060405180910390fd5b5050505050565b600073ffffffffffffffffffffffffffffffffffffffff168373ffffffffffffffffffffffffffffffffffffffff161415616b88576040517f08c379a000000000000000000000000000000000000000000000000000000000815260040180806020018281038252602581526020018061838f6025913960400191505060405180910390fd5b600073ffffffffffffffffffffffffffffffffffffffff168273ffffffffffffffffffffffffffffffffffffffff161415616c0e576040517f08c379a00000000000000000000000000000000000000000000000000000000081526004018080602001828103825260238152602001806182446023913960400191505060405180910390fd5b616c198383836179fe565b616c85816040518060600160405280602681526020016182d160269139606560008773ffffffffffffffffffffffffffffffffffffffff1673ffffffffffffffffffffffffffffffffffffffff16815260200190815260200160002054616dc79092919063ffffffff16565b606560008573ffffffffffffffffffffffffffffffffffffffff1673ffffffffffffffffffffffffffffffffffffffff16815260200190815260200160002081905550616d1a81606560008573ffffffffffffffffffffffffffffffffffffffff1673ffffffffffffffffffffffffffffffffffffffff16815260200190815260200160002054616f5790919063ffffffff16565b606560008473ffffffffffffffffffffffffffffffffffffffff1673ffffffffffffffffffffffffffffffffffffffff168152602001908152602001600020819055508173ffffffffffffffffffffffffffffffffffffffff168373ffffffffffffffffffffffffffffffffffffffff167fddf252ad1be2c89b69c2b068fc378daa952ba7f163c4a11628f55a4df523b3ef836040518082815260200191505060405180910390a3505050565b6000838311158290616e74576040517f08c379a00000000000000000000000000000000000000000000000000000000081526004018080602001828103825283818151815260200191508051906020019080838360005b83811015616e39578082015181840152602081019050616e1e565b50505050905090810190601f168015616e665780820380516001836020036101000a031916815260200191505b509250505060405180910390fd5b5060008385039050809150509392505050565b600080831415616e9a5760009050616f07565b6000828402905082848281616eab57fe5b0414616f02576040517f08c379a00000000000000000000000000000000000000000000000000000000081526004018080602001828103825260218152602001806182f76021913960400191505060405180910390fd5b809150505b92915050565b6000616f4f83836040518060400160405280601a81526020017f536166654d6174683a206469766973696f6e206279207a65726f000000000000815250617a03565b905092915050565b600080828401905083811015616fd5576040517f08c379a000000000000000000000000000000000000000000000000000000000815260040180806020018281038252601b8152602001807f536166654d6174683a206164646974696f6e206f766572666c6f77000000000081525060200191505060405180910390fd5b8091505092915050565b600073ffffffffffffffffffffffffffffffffffffffff168273ffffffffffffffffffffffffffffffffffffffff161415617065576040517f08c379a000000000000000000000000000000000000000000000000000000000815260040180806020018281038252602181526020018061836e6021913960400191505060405180910390fd5b617071826000836179fe565b6170dd8160405180606001604052806022815260200161826760229139606560008673ffffffffffffffffffffffffffffffffffffffff1673ffffffffffffffffffffffffffffffffffffffff16815260200190815260200160002054616dc79092919063ffffffff16565b606560008473ffffffffffffffffffffffffffffffffffffffff1673ffffffffffffffffffffffffffffffffffffffff16815260200190815260200160002081905550617135816067546168bf90919063ffffffff16565b606781905550600073ffffffffffffffffffffffffffffffffffffffff168273ffffffffffffffffffffffffffffffffffffffff167fddf252ad1be2c89b69c2b068fc378daa952ba7f163c4a11628f55a4df523b3ef836040518082815260200191505060405180910390a35050565b600060608573ffffffffffffffffffffffffffffffffffffffff166323b872dd868686604051602401808473ffffffffffffffffffffffffffffffffffffffff1673ffffffffffffffffffffffffffffffffffffffff1681526020018373ffffffffffffffffffffffffffffffffffffffff1673ffffffffffffffffffffffffffffffffffffffff16815260200182815260200193505050506040516020818303038152906040529060e01b6020820180517bffffffffffffffffffffffffffffffffffffffffffffffffffffffff83818316178352505050506040518082805190602001908083835b602083106172b2578051825260208201915060208101905060208303925061728f565b6001836020036101000a0380198251168184511680821785525050505050509050019150506000604051808303816000865af19150503d8060008114617314576040519150601f19603f3d011682016040523d82523d6000602084013e617319565b606091505b50915091508180156173595750600081511480617358575080806020019051602081101561734657600080fd5b81019080805190602001909291905050505b5b6173cb576040517f08c379a00000000000000000000000000000000000000000000000000000000081526004018080602001828103825260118152602001807f21736166655472616e7366657246726f6d00000000000000000000000000000081525060200191505060405180910390fd5b505050505050565b60006173ef826173e1611fb6565b6168bf90919063ffffffff16565b9050600080821461742b5761742682617418617409611238565b86616e8790919063ffffffff16565b616f0d90919063ffffffff16565b61742d565b825b90506174393382617ac9565b505050565b6000806101016000848152602001908152602001600020905060008160020154905060008111156174fd576000617474826163d4565b90506000836002018190555061749682610104546168bf90919063ffffffff16565b610104819055506174b381610105546168bf90919063ffffffff16565b61010581905550847fc141cd58846e97354928242dcc7ddd92a6a0ecf03bdb5d3a411d260b9abc3272836040518082815260200191505060405180910390a2809350505050617504565b6000925050505b919050565b60008273ffffffffffffffffffffffffffffffffffffffff166370a08231836040518263ffffffff1660e01b8152600401808273ffffffffffffffffffffffffffffffffffffffff1673ffffffffffffffffffffffffffffffffffffffff16815260200191505060206040518083038186803b15801561758857600080fd5b505afa15801561759c573d6000803e3d6000fd5b505050506040513d60208110156175b257600080fd5b8101908080519060200190929190505050905092915050565b60008183106175da57816175dc565b825b905092915050565b60006101016000848152602001908152602001600020905060006176078361662c565b9050617620818360020154616f5790919063ffffffff16565b826002018190555061763e8161010454616f5790919063ffffffff16565b6101048190555061765b8361010554616f5790919063ffffffff16565b61010581905550837f43b70d61bab6f8bfcf27c791452876c7da386b19652e19b8f21e8927aa6577ab826040518082815260200191505060405180910390a250505050565b6000803090506000813b9050600081149250505090565b600060019054906101000a900460ff16806176d657506176d56176a0565b5b806176ed57506000809054906101000a900460ff16155b617742576040517f08c379a000000000000000000000000000000000000000000000000000000000815260040180806020018281038252602e815260200180618340602e913960400191505060405180910390fd5b60008060019054906101000a900460ff161590508015617792576001600060016101000a81548160ff02191690831515021790555060016000806101000a81548160ff0219169083151502179055505b61779a617c92565b6177a2617d91565b80156177c35760008060016101000a81548160ff0219169083151502179055505b50565b600060019054906101000a900460ff16806177e557506177e46176a0565b5b806177fc57506000809054906101000a900460ff16155b617851576040517f08c379a000000000000000000000000000000000000000000000000000000000815260040180806020018281038252602e815260200180618340602e913960400191505060405180910390fd5b60008060019054906101000a900460ff1615905080156178a1576001600060016101000a81548160ff02191690831515021790555060016000806101000a81548160ff0219169083151502179055505b6178a9617f39565b80156178ca5760008060016101000a81548160ff0219169083151502179055505b50565b600060019054906101000a900460ff16806178ec57506178eb6176a0565b5b8061790357506000809054906101000a900460ff16155b617958576040517f08c379a000000000000000000000000000000000000000000000000000000000815260040180806020018281038252602e815260200180618340602e913960400191505060405180910390fd5b60008060019054906101000a900460ff1615905080156179a8576001600060016101000a81548160ff02191690831515021790555060016000806101000a81548160ff0219169083151502179055505b6179b0617c92565b6179ba8383618053565b80156179db5760008060016101000a81548160ff0219169083151502179055505b505050565b80606a60006101000a81548160ff021916908360ff16021790555050565b505050565b60008083118290617aaf576040517f08c379a00000000000000000000000000000000000000000000000000000000081526004018080602001828103825283818151815260200191508051906020019080838360005b83811015617a74578082015181840152602081019050617a59565b50505050905090810190601f168015617aa15780820380516001836020036101000a031916815260200191505b509250505060405180910390fd5b506000838581617abb57fe5b049050809150509392505050565b600073ffffffffffffffffffffffffffffffffffffffff168273ffffffffffffffffffffffffffffffffffffffff161415617b6c576040517f08c379a000000000000000000000000000000000000000000000000000000000815260040180806020018281038252601f8152602001807f45524332303a206d696e7420746f20746865207a65726f20616464726573730081525060200191505060405180910390fd5b617b78600083836179fe565b617b8d81606754616f5790919063ffffffff16565b606781905550617be581606560008573ffffffffffffffffffffffffffffffffffffffff1673ffffffffffffffffffffffffffffffffffffffff16815260200190815260200160002054616f5790919063ffffffff16565b606560008473ffffffffffffffffffffffffffffffffffffffff1673ffffffffffffffffffffffffffffffffffffffff168152602001908152602001600020819055508173ffffffffffffffffffffffffffffffffffffffff16600073ffffffffffffffffffffffffffffffffffffffff167fddf252ad1be2c89b69c2b068fc378daa952ba7f163c4a11628f55a4df523b3ef836040518082815260200191505060405180910390a35050565b600060019054906101000a900460ff1680617cb15750617cb06176a0565b5b80617cc857506000809054906101000a900460ff16155b617d1d576040517f08c379a000000000000000000000000000000000000000000000000000000000815260040180806020018281038252602e815260200180618340602e913960400191505060405180910390fd5b60008060019054906101000a900460ff161590508015617d6d576001600060016101000a81548160ff02191690831515021790555060016000806101000a81548160ff0219169083151502179055505b8015617d8e5760008060016101000a81548160ff0219169083151502179055505b50565b600060019054906101000a900460ff1680617db05750617daf6176a0565b5b80617dc757506000809054906101000a900460ff16155b617e1c576040517f08c379a000000000000000000000000000000000000000000000000000000000815260040180806020018281038252602e815260200180618340602e913960400191505060405180910390fd5b60008060019054906101000a900460ff161590508015617e6c576001600060016101000a81548160ff02191690831515021790555060016000806101000a81548160ff0219169083151502179055505b6000617e766166c0565b90508060c960006101000a81548173ffffffffffffffffffffffffffffffffffffffff021916908373ffffffffffffffffffffffffffffffffffffffff1602179055508073ffffffffffffffffffffffffffffffffffffffff16600073ffffffffffffffffffffffffffffffffffffffff167f8be0079c531659141344cd1fd0a4f28419497f9722a3daafe3b4186f6b6457e060405160405180910390a3508015617f365760008060016101000a81548160ff0219169083151502179055505b50565b600060019054906101000a900460ff1680617f585750617f576176a0565b5b80617f6f57506000809054906101000a900460ff16155b617fc4576040517f08c379a000000000000000000000000000000000000000000000000000000000815260040180806020018281038252602e815260200180618340602e913960400191505060405180910390fd5b60008060019054906101000a900460ff161590508015618014576001600060016101000a81548160ff02191690831515021790555060016000806101000a81548160ff0219169083151502179055505b6001609760006101000a81548160ff02191690831515021790555080156180505760008060016101000a81548160ff0219169083151502179055505b50565b600060019054906101000a900460ff168061807257506180716176a0565b5b8061808957506000809054906101000a900460ff16155b6180de576040517f08c379a000000000000000000000000000000000000000000000000000000000815260040180806020018281038252602e815260200180618340602e913960400191505060405180910390fd5b60008060019054906101000a900460ff16159050801561812e576001600060016101000a81548160ff02191690831515021790555060016000806101000a81548160ff0219169083151502179055505b826068908051906020019061814492919061819e565b50816069908051906020019061815b92919061819e565b506012606a60006101000a81548160ff021916908360ff16021790555080156181995760008060016101000a81548160ff0219169083151502179055505b505050565b828054600181600116156101000203166002900490600052602060002090601f016020900481019282601f106181df57805160ff191683800117855561820d565b8280016001018555821561820d579182015b8281111561820c5782518255916020019190600101906181f1565b5b50905061821a919061821e565b5090565b61824091905b8082111561823c576000816000905550600101618224565b5090565b9056fe45524332303a207472616e7366657220746f20746865207a65726f206164647265737345524332303a206275726e20616d6f756e7420657863656564732062616c616e63654f776e61626c653a206e6577206f776e657220697320746865207a65726f206164647265737345524332303a20617070726f766520746f20746865207a65726f206164647265737345524332303a207472616e7366657220616d6f756e7420657863656564732062616c616e6365536166654d6174683a206d756c7469706c69636174696f6e206f766572666c6f7745524332303a207472616e7366657220616d6f756e74206578636565647320616c6c6f77616e6365436f6e747261637420696e7374616e63652068617320616c7265616479206265656e20696e697469616c697a656445524332303a206275726e2066726f6d20746865207a65726f206164647265737345524332303a207472616e736665722066726f6d20746865207a65726f206164647265737345524332303a20617070726f76652066726f6d20746865207a65726f206164647265737345524332303a2064656372656173656420616c6c6f77616e63652062656c6f77207a65726fa2646970667358221220772be307b7555b692eea6f60eaded3fc585c2a7c80debdc1d509b4db02fbed9f64736f6c63430006060033",
  "linkReferences": {},
  "deployedLinkReferences": {}
}