{
  "_format": "hh-sol-artifact-1",
  "contractName": "IbTokenRouter",
  "sourceName": "contracts/protocol/IbTokenRouter.sol",
  "abi": [
    {
      "anonymous": false,
      "inputs": [
        {
          "indexed": true,
          "internalType": "address",
          "name": "previousOwner",
          "type": "address"
        },
        {
          "indexed": true,
          "internalType": "address",
          "name": "newOwner",
          "type": "address"
        }
      ],
      "name": "OwnershipTransferred",
      "type": "event"
    },
    {
      "inputs": [
        {
          "internalType": "uint256",
          "name": "amountTokenDesired",
          "type": "uint256"
        },
        {
          "internalType": "uint256",
          "name": "amountTokenMin",
          "type": "uint256"
        },
        {
          "internalType": "uint256",
          "name": "amountAlpacaDesired",
          "type": "uint256"
        },
        {
          "internalType": "uint256",
          "name": "amountAlpacaMin",
          "type": "uint256"
        },
        {
          "internalType": "address",
          "name": "to",
          "type": "address"
        },
        {
          "internalType": "uint256",
          "name": "deadline",
          "type": "uint256"
        }
      ],
      "name": "addLiquidityToken",
      "outputs": [
        {
          "internalType": "uint256",
          "name": "amountAlpaca",
          "type": "uint256"
        },
        {
          "internalType": "uint256",
          "name": "amountToken",
          "type": "uint256"
        },
        {
          "internalType": "uint256",
          "name": "liquidity",
          "type": "uint256"
        }
      ],
      "stateMutability": "nonpayable",
      "type": "function"
    },
    {
      "inputs": [
        {
          "internalType": "uint256",
          "name": "amountIbTokenDesired",
          "type": "uint256"
        },
        {
          "internalType": "uint256",
          "name": "amountAlpacaDesired",
          "type": "uint256"
        },
        {
          "internalType": "uint256",
          "name": "amountLPMin",
          "type": "uint256"
        },
        {
          "internalType": "address",
          "name": "to",
          "type": "address"
        },
        {
          "internalType": "uint256",
          "name": "deadline",
          "type": "uint256"
        }
      ],
      "name": "addLiquidityTwoSidesOptimal",
      "outputs": [
        {
          "internalType": "uint256",
          "name": "liquidity",
          "type": "uint256"
        }
      ],
      "stateMutability": "nonpayable",
      "type": "function"
    },
    {
      "inputs": [
        {
          "internalType": "uint256",
          "name": "amountTokenDesired",
          "type": "uint256"
        },
        {
          "internalType": "uint256",
          "name": "amountAlpacaDesired",
          "type": "uint256"
        },
        {
          "internalType": "uint256",
          "name": "amountLPMin",
          "type": "uint256"
        },
        {
          "internalType": "address",
          "name": "to",
          "type": "address"
        },
        {
          "internalType": "uint256",
          "name": "deadline",
          "type": "uint256"
        }
      ],
      "name": "addLiquidityTwoSidesOptimalToken",
      "outputs": [
        {
          "internalType": "uint256",
          "name": "liquidity",
          "type": "uint256"
        }
      ],
      "stateMutability": "nonpayable",
      "type": "function"
    },
    {
      "inputs": [],
      "name": "alpaca",
      "outputs": [
        {
          "internalType": "address",
          "name": "",
          "type": "address"
        }
      ],
      "stateMutability": "view",
      "type": "function"
    },
    {
      "inputs": [],
      "name": "ibToken",
      "outputs": [
        {
          "internalType": "address",
          "name": "",
          "type": "address"
        }
      ],
      "stateMutability": "view",
      "type": "function"
    },
    {
      "inputs": [
        {
          "internalType": "uint256",
          "name": "amountToken",
          "type": "uint256"
        }
      ],
      "name": "ibTokenForExactToken",
      "outputs": [
        {
          "internalType": "uint256",
          "name": "",
          "type": "uint256"
        }
      ],
      "stateMutability": "view",
      "type": "function"
    },
    {
      "inputs": [
        {
          "internalType": "address",
          "name": "_router",
          "type": "address"
        },
        {
          "internalType": "address",
          "name": "_token",
          "type": "address"
        },
        {
          "internalType": "address",
          "name": "_ibToken",
          "type": "address"
        },
        {
          "internalType": "address",
          "name": "_alpaca",
          "type": "address"
        }
      ],
      "name": "initialize",
      "outputs": [],
      "stateMutability": "nonpayable",
      "type": "function"
    },
    {
      "inputs": [],
      "name": "lpToken",
      "outputs": [
        {
          "internalType": "address",
          "name": "",
          "type": "address"
        }
      ],
      "stateMutability": "view",
      "type": "function"
    },
    {
      "inputs": [],
      "name": "owner",
      "outputs": [
        {
          "internalType": "address",
          "name": "",
          "type": "address"
        }
      ],
      "stateMutability": "view",
      "type": "function"
    },
    {
      "inputs": [
        {
          "internalType": "uint256",
          "name": "liquidity",
          "type": "uint256"
        },
        {
          "internalType": "uint256",
          "name": "amountAlpacaMin",
          "type": "uint256"
        },
        {
          "internalType": "address",
          "name": "to",
          "type": "address"
        },
        {
          "internalType": "uint256",
          "name": "deadline",
          "type": "uint256"
        }
      ],
      "name": "removeLiquidityAllAlpaca",
      "outputs": [
        {
          "internalType": "uint256",
          "name": "amountAlpaca",
          "type": "uint256"
        }
      ],
      "stateMutability": "nonpayable",
      "type": "function"
    },
    {
      "inputs": [
        {
          "internalType": "uint256",
          "name": "liquidity",
          "type": "uint256"
        },
        {
          "internalType": "uint256",
          "name": "amountAlpacaMin",
          "type": "uint256"
        },
        {
          "internalType": "uint256",
          "name": "amountTokenMin",
          "type": "uint256"
        },
        {
          "internalType": "address",
          "name": "to",
          "type": "address"
        },
        {
          "internalType": "uint256",
          "name": "deadline",
          "type": "uint256"
        }
      ],
      "name": "removeLiquidityToken",
      "outputs": [
        {
          "internalType": "uint256",
          "name": "amountAlpaca",
          "type": "uint256"
        },
        {
          "internalType": "uint256",
          "name": "amountToken",
          "type": "uint256"
        }
      ],
      "stateMutability": "nonpayable",
      "type": "function"
    },
    {
      "inputs": [],
      "name": "renounceOwnership",
      "outputs": [],
      "stateMutability": "nonpayable",
      "type": "function"
    },
    {
      "inputs": [],
      "name": "router",
      "outputs": [
        {
          "internalType": "address",
          "name": "",
          "type": "address"
        }
      ],
      "stateMutability": "view",
      "type": "function"
    },
    {
      "inputs": [
        {
          "internalType": "uint256",
          "name": "amountAlpacaIn",
          "type": "uint256"
        },
        {
          "internalType": "uint256",
          "name": "exactTokenOut",
          "type": "uint256"
        },
        {
          "internalType": "address",
          "name": "to",
          "type": "address"
        },
        {
          "internalType": "uint256",
          "name": "deadline",
          "type": "uint256"
        }
      ],
      "name": "swapAlpacaForExactToken",
      "outputs": [
        {
          "internalType": "uint256[]",
          "name": "amounts",
          "type": "uint256[]"
        }
      ],
      "stateMutability": "nonpayable",
      "type": "function"
    },
    {
      "inputs": [
        {
          "internalType": "uint256",
          "name": "exactAlpacaIn",
          "type": "uint256"
        },
        {
          "internalType": "uint256",
          "name": "amountTokenOutMin",
          "type": "uint256"
        },
        {
          "internalType": "address",
          "name": "to",
          "type": "address"
        },
        {
          "internalType": "uint256",
          "name": "deadline",
          "type": "uint256"
        }
      ],
      "name": "swapExactAlpacaForToken",
      "outputs": [
        {
          "internalType": "uint256[]",
          "name": "amounts",
          "type": "uint256[]"
        }
      ],
      "stateMutability": "nonpayable",
      "type": "function"
    },
    {
      "inputs": [
        {
          "internalType": "uint256",
          "name": "amountExactTokenIn",
          "type": "uint256"
        },
        {
          "internalType": "uint256",
          "name": "amountAlpacaOutMin",
          "type": "uint256"
        },
        {
          "internalType": "address",
          "name": "to",
          "type": "address"
        },
        {
          "internalType": "uint256",
          "name": "deadline",
          "type": "uint256"
        }
      ],
      "name": "swapExactTokenForAlpaca",
      "outputs": [
        {
          "internalType": "uint256[]",
          "name": "amounts",
          "type": "uint256[]"
        }
      ],
      "stateMutability": "nonpayable",
      "type": "function"
    },
    {
      "inputs": [
        {
          "internalType": "uint256",
          "name": "amountTokenIn",
          "type": "uint256"
        },
        {
          "internalType": "uint256",
          "name": "exactAlpacaOut",
          "type": "uint256"
        },
        {
          "internalType": "address",
          "name": "to",
          "type": "address"
        },
        {
          "internalType": "uint256",
          "name": "deadline",
          "type": "uint256"
        }
      ],
      "name": "swapTokenForExactAlpaca",
      "outputs": [
        {
          "internalType": "uint256[]",
          "name": "amounts",
          "type": "uint256[]"
        }
      ],
      "stateMutability": "nonpayable",
      "type": "function"
    },
    {
      "inputs": [],
      "name": "token",
      "outputs": [
        {
          "internalType": "address",
          "name": "",
          "type": "address"
        }
      ],
      "stateMutability": "view",
      "type": "function"
    },
    {
      "inputs": [
        {
          "internalType": "address",
          "name": "newOwner",
          "type": "address"
        }
      ],
      "name": "transferOwnership",
      "outputs": [],
      "stateMutability": "nonpayable",
      "type": "function"
    }
  ],
  "bytecode": "0x608060405234801561001057600080fd5b50616e1080620000216000396000f3fe608060405234801561001057600080fd5b50600436106101215760003560e01c8063a300bf68116100ad578063d8d45d3811610071578063d8d45d3814610754578063f2fde38b1461080b578063f887ea401461084f578063f8c8765e14610899578063fc0c546a1461093d57610121565b8063a300bf68146104a7578063a3f1489e1461055e578063b0d6bcbe146105d4578063c2e9fade14610616578063d45997451461069d57610121565b8063715018a6116100f4578063715018a61461030957806376ef4051146103135780638596f3d6146103935780638da5cb5b1461041357806394faab231461045d57610121565b80630a8a5a5f146101265780631e4869b914610170578063499a7fc4146102275780635fcbd285146102bf575b600080fd5b61012e610987565b604051808273ffffffffffffffffffffffffffffffffffffffff1673ffffffffffffffffffffffffffffffffffffffff16815260200191505060405180910390f35b6101d06004803603608081101561018657600080fd5b810190808035906020019092919080359060200190929190803573ffffffffffffffffffffffffffffffffffffffff169060200190929190803590602001909291905050506109ad565b6040518080602001828103825283818151815260200191508051906020019060200280838360005b838110156102135780820151818401526020810190506101f8565b505050509050019250505060405180910390f35b61029b600480360360c081101561023d57600080fd5b8101908080359060200190929190803590602001909291908035906020019092919080359060200190929190803573ffffffffffffffffffffffffffffffffffffffff169060200190929190803590602001909291905050506110d2565b60405180848152602001838152602001828152602001935050505060405180910390f35b6102c76117c0565b604051808273ffffffffffffffffffffffffffffffffffffffff1673ffffffffffffffffffffffffffffffffffffffff16815260200191505060405180910390f35b6103116117e6565b005b61037d600480360360a081101561032957600080fd5b81019080803590602001909291908035906020019092919080359060200190929190803573ffffffffffffffffffffffffffffffffffffffff16906020019092919080359060200190929190505050611971565b6040518082815260200191505060405180910390f35b6103fd600480360360a08110156103a957600080fd5b81019080803590602001909291908035906020019092919080359060200190929190803573ffffffffffffffffffffffffffffffffffffffff169060200190929190803590602001909291905050506126a7565b6040518082815260200191505060405180910390f35b61041b613271565b604051808273ffffffffffffffffffffffffffffffffffffffff1673ffffffffffffffffffffffffffffffffffffffff16815260200191505060405180910390f35b61046561329b565b604051808273ffffffffffffffffffffffffffffffffffffffff1673ffffffffffffffffffffffffffffffffffffffff16815260200191505060405180910390f35b610507600480360360808110156104bd57600080fd5b810190808035906020019092919080359060200190929190803573ffffffffffffffffffffffffffffffffffffffff169060200190929190803590602001909291905050506132c1565b6040518080602001828103825283818151815260200191508051906020019060200280838360005b8381101561054a57808201518184015260208101905061052f565b505050509050019250505060405180910390f35b6105be6004803603608081101561057457600080fd5b810190808035906020019092919080359060200190929190803573ffffffffffffffffffffffffffffffffffffffff16906020019092919080359060200190929190505050613935565b6040518082815260200191505060405180910390f35b610600600480360360208110156105ea57600080fd5b8101908080359060200190929190505050613f7e565b6040518082815260200191505060405180910390f35b610680600480360360a081101561062c57600080fd5b81019080803590602001909291908035906020019092919080359060200190929190803573ffffffffffffffffffffffffffffffffffffffff16906020019092919080359060200190929190505050614129565b604051808381526020018281526020019250505060405180910390f35b6106fd600480360360808110156106b357600080fd5b810190808035906020019092919080359060200190929190803573ffffffffffffffffffffffffffffffffffffffff16906020019092919080359060200190929190505050614620565b6040518080602001828103825283818151815260200191508051906020019060200280838360005b83811015610740578082015181840152602081019050610725565b505050509050019250505060405180910390f35b6107b46004803603608081101561076a57600080fd5b810190808035906020019092919080359060200190929190803573ffffffffffffffffffffffffffffffffffffffff16906020019092919080359060200190929190505050614c10565b6040518080602001828103825283818151815260200191508051906020019060200280838360005b838110156107f75780820151818401526020810190506107dc565b505050509050019250505060405180910390f35b61084d6004803603602081101561082157600080fd5b81019080803573ffffffffffffffffffffffffffffffffffffffff16906020019092919050505061513d565b005b61085761534d565b604051808273ffffffffffffffffffffffffffffffffffffffff1673ffffffffffffffffffffffffffffffffffffffff16815260200191505060405180910390f35b61093b600480360360808110156108af57600080fd5b81019080803573ffffffffffffffffffffffffffffffffffffffff169060200190929190803573ffffffffffffffffffffffffffffffffffffffff169060200190929190803573ffffffffffffffffffffffffffffffffffffffff169060200190929190803573ffffffffffffffffffffffffffffffffffffffff169060200190929190505050615373565b005b610945615c7c565b604051808273ffffffffffffffffffffffffffffffffffffffff1673ffffffffffffffffffffffffffffffffffffffff16815260200191505060405180910390f35b609960009054906101000a900473ffffffffffffffffffffffffffffffffffffffff1681565b60606109dd609860009054906101000a900473ffffffffffffffffffffffffffffffffffffffff16333088615ca2565b609960009054906101000a900473ffffffffffffffffffffffffffffffffffffffff1673ffffffffffffffffffffffffffffffffffffffff1663b6b55f25866040518263ffffffff1660e01b815260040180828152602001915050600060405180830381600087803b158015610a5257600080fd5b505af1158015610a66573d6000803e3d6000fd5b505050506000609960009054906101000a900473ffffffffffffffffffffffffffffffffffffffff1673ffffffffffffffffffffffffffffffffffffffff166370a08231306040518263ffffffff1660e01b8152600401808273ffffffffffffffffffffffffffffffffffffffff1673ffffffffffffffffffffffffffffffffffffffff16815260200191505060206040518083038186803b158015610b0b57600080fd5b505afa158015610b1f573d6000803e3d6000fd5b505050506040513d6020811015610b3557600080fd5b810190808051906020019092919050505090506060600267ffffffffffffffff81118015610b6257600080fd5b50604051908082528060200260200182016040528015610b915781602001602082028036833780820191505090505b509050609960009054906101000a900473ffffffffffffffffffffffffffffffffffffffff1681600081518110610bc457fe5b602002602001019073ffffffffffffffffffffffffffffffffffffffff16908173ffffffffffffffffffffffffffffffffffffffff1681525050609a60009054906101000a900473ffffffffffffffffffffffffffffffffffffffff1681600181518110610c2e57fe5b602002602001019073ffffffffffffffffffffffffffffffffffffffff16908173ffffffffffffffffffffffffffffffffffffffff16815250506060609760009054906101000a900473ffffffffffffffffffffffffffffffffffffffff1673ffffffffffffffffffffffffffffffffffffffff16638803dbee8885858a8a6040518663ffffffff1660e01b815260040180868152602001858152602001806020018473ffffffffffffffffffffffffffffffffffffffff1673ffffffffffffffffffffffffffffffffffffffff168152602001838152602001828103825285818151815260200191508051906020019060200280838360005b83811015610d43578082015181840152602081019050610d28565b505050509050019650505050505050600060405180830381600087803b158015610d6c57600080fd5b505af1158015610d80573d6000803e3d6000fd5b505050506040513d6000823e3d601f19601f820116820180604052506020811015610daa57600080fd5b8101908080516040519392919084640100000000821115610dca57600080fd5b83820191506020820185811115610de057600080fd5b8251866020820283011164010000000082111715610dfd57600080fd5b8083526020830192505050908051906020019060200280838360005b83811015610e34578082015181840152602081019050610e19565b505050509050016040525050509050600267ffffffffffffffff81118015610e5b57600080fd5b50604051908082528060200260200182016040528015610e8a5781602001602082028036833780820191505090505b5093508784600081518110610e9b57fe5b60200260200101818152505080600181518110610eb457fe5b602002602001015184600181518110610ec957fe5b60200260200101818152505080600081518110610ee257fe5b60200260200101518311156110c757609960009054906101000a900473ffffffffffffffffffffffffffffffffffffffff1673ffffffffffffffffffffffffffffffffffffffff16632e1a7d4d610f5683600081518110610f3f57fe5b602002602001015186615ed090919063ffffffff16565b6040518263ffffffff1660e01b815260040180828152602001915050600060405180830381600087803b158015610f8c57600080fd5b505af1158015610fa0573d6000803e3d6000fd5b5050505047880384600081518110610fb457fe5b6020026020010181815250506110c6609860009054906101000a900473ffffffffffffffffffffffffffffffffffffffff1687609860009054906101000a900473ffffffffffffffffffffffffffffffffffffffff1673ffffffffffffffffffffffffffffffffffffffff166370a08231306040518263ffffffff1660e01b8152600401808273ffffffffffffffffffffffffffffffffffffffff1673ffffffffffffffffffffffffffffffffffffffff16815260200191505060206040518083038186803b15801561108657600080fd5b505afa15801561109a573d6000803e3d6000fd5b505050506040513d60208110156110b057600080fd5b8101908080519060200190929190505050615f1a565b5b505050949350505050565b60008060008089111561110e5761110d609860009054906101000a900473ffffffffffffffffffffffffffffffffffffffff1633308c615ca2565b5b600087111561114657611145609a60009054906101000a900473ffffffffffffffffffffffffffffffffffffffff1633308a615ca2565b5b609960009054906101000a900473ffffffffffffffffffffffffffffffffffffffff1673ffffffffffffffffffffffffffffffffffffffff1663b6b55f258a6040518263ffffffff1660e01b815260040180828152602001915050600060405180830381600087803b1580156111bb57600080fd5b505af11580156111cf573d6000803e3d6000fd5b505050506000609960009054906101000a900473ffffffffffffffffffffffffffffffffffffffff1673ffffffffffffffffffffffffffffffffffffffff166370a08231306040518263ffffffff1660e01b8152600401808273ffffffffffffffffffffffffffffffffffffffff1673ffffffffffffffffffffffffffffffffffffffff16815260200191505060206040518083038186803b15801561127457600080fd5b505afa158015611288573d6000803e3d6000fd5b505050506040513d602081101561129e57600080fd5b810190808051906020019092919050505090506000609760009054906101000a900473ffffffffffffffffffffffffffffffffffffffff1673ffffffffffffffffffffffffffffffffffffffff1663e8e33700609a60009054906101000a900473ffffffffffffffffffffffffffffffffffffffff16609960009054906101000a900473ffffffffffffffffffffffffffffffffffffffff168c868d60008e8e6040518963ffffffff1660e01b8152600401808973ffffffffffffffffffffffffffffffffffffffff1673ffffffffffffffffffffffffffffffffffffffff1681526020018873ffffffffffffffffffffffffffffffffffffffff1673ffffffffffffffffffffffffffffffffffffffff1681526020018781526020018681526020018581526020018481526020018373ffffffffffffffffffffffffffffffffffffffff1673ffffffffffffffffffffffffffffffffffffffff16815260200182815260200198505050505050505050606060405180830381600087803b15801561142957600080fd5b505af115801561143d573d6000803e3d6000fd5b505050506040513d606081101561145357600080fd5b81019080805190602001909291908051906020019092919080519060200190929190505050809550819350829750505050848911156114cc576114cb609a60009054906101000a900473ffffffffffffffffffffffffffffffffffffffff16336114c6888d615ed090919063ffffffff16565b615f1a565b5b609960009054906101000a900473ffffffffffffffffffffffffffffffffffffffff1673ffffffffffffffffffffffffffffffffffffffff16632e1a7d4d61151d8385615ed090919063ffffffff16565b6040518263ffffffff1660e01b815260040180828152602001915050600060405180830381600087803b15801561155357600080fd5b505af1158015611567573d6000803e3d6000fd5b50505050609860009054906101000a900473ffffffffffffffffffffffffffffffffffffffff1673ffffffffffffffffffffffffffffffffffffffff166370a08231306040518263ffffffff1660e01b8152600401808273ffffffffffffffffffffffffffffffffffffffff1673ffffffffffffffffffffffffffffffffffffffff16815260200191505060206040518083038186803b15801561160a57600080fd5b505afa15801561161e573d6000803e3d6000fd5b505050506040513d602081101561163457600080fd5b81019080805190602001909291905050508b039350600084111561175957611758609860009054906101000a900473ffffffffffffffffffffffffffffffffffffffff1633609860009054906101000a900473ffffffffffffffffffffffffffffffffffffffff1673ffffffffffffffffffffffffffffffffffffffff166370a08231306040518263ffffffff1660e01b8152600401808273ffffffffffffffffffffffffffffffffffffffff1673ffffffffffffffffffffffffffffffffffffffff16815260200191505060206040518083038186803b15801561171857600080fd5b505afa15801561172c573d6000803e3d6000fd5b505050506040513d602081101561174257600080fd5b8101908080519060200190929190505050615f1a565b5b898410156117b2576040517f08c379a0000000000000000000000000000000000000000000000000000000008152600401808060200182810382526035815260200180616ceb6035913960400191505060405180910390fd5b505096509650969350505050565b609b60009054906101000a900473ffffffffffffffffffffffffffffffffffffffff1681565b6117ee616113565b73ffffffffffffffffffffffffffffffffffffffff16606560009054906101000a900473ffffffffffffffffffffffffffffffffffffffff1673ffffffffffffffffffffffffffffffffffffffff16146118b0576040517f08c379a00000000000000000000000000000000000000000000000000000000081526004018080602001828103825260208152602001807f4f776e61626c653a2063616c6c6572206973206e6f7420746865206f776e657281525060200191505060405180910390fd5b600073ffffffffffffffffffffffffffffffffffffffff16606560009054906101000a900473ffffffffffffffffffffffffffffffffffffffff1673ffffffffffffffffffffffffffffffffffffffff167f8be0079c531659141344cd1fd0a4f28419497f9722a3daafe3b4186f6b6457e060405160405180910390a36000606560006101000a81548173ffffffffffffffffffffffffffffffffffffffff021916908373ffffffffffffffffffffffffffffffffffffffff160217905550565b6000808611156119aa576119a9609860009054906101000a900473ffffffffffffffffffffffffffffffffffffffff16333089615ca2565b5b60008511156119e2576119e1609a60009054906101000a900473ffffffffffffffffffffffffffffffffffffffff16333088615ca2565b5b609960009054906101000a900473ffffffffffffffffffffffffffffffffffffffff1673ffffffffffffffffffffffffffffffffffffffff1663b6b55f25876040518263ffffffff1660e01b815260040180828152602001915050600060405180830381600087803b158015611a5757600080fd5b505af1158015611a6b573d6000803e3d6000fd5b505050506000609960009054906101000a900473ffffffffffffffffffffffffffffffffffffffff1673ffffffffffffffffffffffffffffffffffffffff166370a08231306040518263ffffffff1660e01b8152600401808273ffffffffffffffffffffffffffffffffffffffff1673ffffffffffffffffffffffffffffffffffffffff16815260200191505060206040518083038186803b158015611b1057600080fd5b505afa158015611b24573d6000803e3d6000fd5b505050506040513d6020811015611b3a57600080fd5b81019080805190602001909291905050509050600080600080609b60009054906101000a900473ffffffffffffffffffffffffffffffffffffffff1673ffffffffffffffffffffffffffffffffffffffff16630902f1ac6040518163ffffffff1660e01b815260040160606040518083038186803b158015611bbb57600080fd5b505afa158015611bcf573d6000803e3d6000fd5b505050506040513d6060811015611be557600080fd5b81019080805190602001909291908051906020019092919080519060200190929190505050506dffffffffffffffffffffffffffff1691506dffffffffffffffffffffffffffff169150600080609960009054906101000a900473ffffffffffffffffffffffffffffffffffffffff1673ffffffffffffffffffffffffffffffffffffffff16609b60009054906101000a900473ffffffffffffffffffffffffffffffffffffffff1673ffffffffffffffffffffffffffffffffffffffff16630dfe16816040518163ffffffff1660e01b815260040160206040518083038186803b158015611cd357600080fd5b505afa158015611ce7573d6000803e3d6000fd5b505050506040513d6020811015611cfd57600080fd5b810190808051906020019092919050505073ffffffffffffffffffffffffffffffffffffffff1614611d30578284611d33565b83835b91509150611d43878d848461611b565b8096508197505050505050506060600267ffffffffffffffff81118015611d6957600080fd5b50604051908082528060200260200182016040528015611d985781602001602082028036833780820191505090505b50905081611deb57609960009054906101000a900473ffffffffffffffffffffffffffffffffffffffff16609a60009054906101000a900473ffffffffffffffffffffffffffffffffffffffff16611e32565b609a60009054906101000a900473ffffffffffffffffffffffffffffffffffffffff16609960009054906101000a900473ffffffffffffffffffffffffffffffffffffffff165b82600081518110611e3f57fe5b6020026020010183600181518110611e5357fe5b602002602001018273ffffffffffffffffffffffffffffffffffffffff1673ffffffffffffffffffffffffffffffffffffffff168152508273ffffffffffffffffffffffffffffffffffffffff1673ffffffffffffffffffffffffffffffffffffffff168152505050609760009054906101000a900473ffffffffffffffffffffffffffffffffffffffff1673ffffffffffffffffffffffffffffffffffffffff166338ed17398460008430426040518663ffffffff1660e01b815260040180868152602001858152602001806020018473ffffffffffffffffffffffffffffffffffffffff1673ffffffffffffffffffffffffffffffffffffffff168152602001838152602001828103825285818151815260200191508051906020019060200280838360005b83811015611f96578082015181840152602081019050611f7b565b505050509050019650505050505050600060405180830381600087803b158015611fbf57600080fd5b505af1158015611fd3573d6000803e3d6000fd5b505050506040513d6000823e3d601f19601f820116820180604052506020811015611ffd57600080fd5b810190808051604051939291908464010000000082111561201d57600080fd5b8382019150602082018581111561203357600080fd5b825186602082028301116401000000008211171561205057600080fd5b8083526020830192505050908051906020019060200280838360005b8381101561208757808201518184015260208101905061206c565b5050505090500160405250505050609760009054906101000a900473ffffffffffffffffffffffffffffffffffffffff1673ffffffffffffffffffffffffffffffffffffffff1663e8e33700609a60009054906101000a900473ffffffffffffffffffffffffffffffffffffffff16609960009054906101000a900473ffffffffffffffffffffffffffffffffffffffff16609a60009054906101000a900473ffffffffffffffffffffffffffffffffffffffff1673ffffffffffffffffffffffffffffffffffffffff166370a08231306040518263ffffffff1660e01b8152600401808273ffffffffffffffffffffffffffffffffffffffff1673ffffffffffffffffffffffffffffffffffffffff16815260200191505060206040518083038186803b1580156121b857600080fd5b505afa1580156121cc573d6000803e3d6000fd5b505050506040513d60208110156121e257600080fd5b8101908080519060200190929190505050609960009054906101000a900473ffffffffffffffffffffffffffffffffffffffff1673ffffffffffffffffffffffffffffffffffffffff166370a08231306040518263ffffffff1660e01b8152600401808273ffffffffffffffffffffffffffffffffffffffff1673ffffffffffffffffffffffffffffffffffffffff16815260200191505060206040518083038186803b15801561229257600080fd5b505afa1580156122a6573d6000803e3d6000fd5b505050506040513d60208110156122bc57600080fd5b81019080805190602001909291905050506000808e8e6040518963ffffffff1660e01b8152600401808973ffffffffffffffffffffffffffffffffffffffff1673ffffffffffffffffffffffffffffffffffffffff1681526020018873ffffffffffffffffffffffffffffffffffffffff1673ffffffffffffffffffffffffffffffffffffffff1681526020018781526020018681526020018581526020018481526020018373ffffffffffffffffffffffffffffffffffffffff1673ffffffffffffffffffffffffffffffffffffffff16815260200182815260200198505050505050505050606060405180830381600087803b1580156123bd57600080fd5b505af11580156123d1573d6000803e3d6000fd5b505050506040513d60608110156123e757600080fd5b810190808051906020019092919080519060200190929190805190602001909291905050509091509050809550506000609a60009054906101000a900473ffffffffffffffffffffffffffffffffffffffff1673ffffffffffffffffffffffffffffffffffffffff166370a08231306040518263ffffffff1660e01b8152600401808273ffffffffffffffffffffffffffffffffffffffff1673ffffffffffffffffffffffffffffffffffffffff16815260200191505060206040518083038186803b1580156124b657600080fd5b505afa1580156124ca573d6000803e3d6000fd5b505050506040513d60208110156124e057600080fd5b810190808051906020019092919050505090506000609960009054906101000a900473ffffffffffffffffffffffffffffffffffffffff1673ffffffffffffffffffffffffffffffffffffffff166370a08231306040518263ffffffff1660e01b8152600401808273ffffffffffffffffffffffffffffffffffffffff1673ffffffffffffffffffffffffffffffffffffffff16815260200191505060206040518083038186803b15801561259457600080fd5b505afa1580156125a8573d6000803e3d6000fd5b505050506040513d60208110156125be57600080fd5b81019080805190602001909291905050509050600082111561260857612607609a60009054906101000a900473ffffffffffffffffffffffffffffffffffffffff163384615f1a565b5b600081111561263f5761263e609960009054906101000a900473ffffffffffffffffffffffffffffffffffffffff163383615f1a565b5b89871015612698576040517f08c379a0000000000000000000000000000000000000000000000000000000008152600401808060200182810382526034815260200180616cb76034913960400191505060405180910390fd5b50505050505095945050505050565b6000808611156126e0576126df609960009054906101000a900473ffffffffffffffffffffffffffffffffffffffff16333089615ca2565b5b600085111561271857612717609a60009054906101000a900473ffffffffffffffffffffffffffffffffffffffff16333088615ca2565b5b600080600080609b60009054906101000a900473ffffffffffffffffffffffffffffffffffffffff1673ffffffffffffffffffffffffffffffffffffffff16630902f1ac6040518163ffffffff1660e01b815260040160606040518083038186803b15801561278657600080fd5b505afa15801561279a573d6000803e3d6000fd5b505050506040513d60608110156127b057600080fd5b81019080805190602001909291908051906020019092919080519060200190929190505050506dffffffffffffffffffffffffffff1691506dffffffffffffffffffffffffffff169150600080609960009054906101000a900473ffffffffffffffffffffffffffffffffffffffff1673ffffffffffffffffffffffffffffffffffffffff16609b60009054906101000a900473ffffffffffffffffffffffffffffffffffffffff1673ffffffffffffffffffffffffffffffffffffffff16630dfe16816040518163ffffffff1660e01b815260040160206040518083038186803b15801561289e57600080fd5b505afa1580156128b2573d6000803e3d6000fd5b505050506040513d60208110156128c857600080fd5b810190808051906020019092919050505073ffffffffffffffffffffffffffffffffffffffff16146128fb5782846128fe565b83835b9150915061290e8c8c848461611b565b8096508197505050505050506060600267ffffffffffffffff8111801561293457600080fd5b506040519080825280602002602001820160405280156129635781602001602082028036833780820191505090505b509050816129b657609960009054906101000a900473ffffffffffffffffffffffffffffffffffffffff16609a60009054906101000a900473ffffffffffffffffffffffffffffffffffffffff166129fd565b609a60009054906101000a900473ffffffffffffffffffffffffffffffffffffffff16609960009054906101000a900473ffffffffffffffffffffffffffffffffffffffff165b82600081518110612a0a57fe5b6020026020010183600181518110612a1e57fe5b602002602001018273ffffffffffffffffffffffffffffffffffffffff1673ffffffffffffffffffffffffffffffffffffffff168152508273ffffffffffffffffffffffffffffffffffffffff1673ffffffffffffffffffffffffffffffffffffffff168152505050609760009054906101000a900473ffffffffffffffffffffffffffffffffffffffff1673ffffffffffffffffffffffffffffffffffffffff166338ed17398460008430426040518663ffffffff1660e01b815260040180868152602001858152602001806020018473ffffffffffffffffffffffffffffffffffffffff1673ffffffffffffffffffffffffffffffffffffffff168152602001838152602001828103825285818151815260200191508051906020019060200280838360005b83811015612b61578082015181840152602081019050612b46565b505050509050019650505050505050600060405180830381600087803b158015612b8a57600080fd5b505af1158015612b9e573d6000803e3d6000fd5b505050506040513d6000823e3d601f19601f820116820180604052506020811015612bc857600080fd5b8101908080516040519392919084640100000000821115612be857600080fd5b83820191506020820185811115612bfe57600080fd5b8251866020820283011164010000000082111715612c1b57600080fd5b8083526020830192505050908051906020019060200280838360005b83811015612c52578082015181840152602081019050612c37565b5050505090500160405250505050609760009054906101000a900473ffffffffffffffffffffffffffffffffffffffff1673ffffffffffffffffffffffffffffffffffffffff1663e8e33700609a60009054906101000a900473ffffffffffffffffffffffffffffffffffffffff16609960009054906101000a900473ffffffffffffffffffffffffffffffffffffffff16609a60009054906101000a900473ffffffffffffffffffffffffffffffffffffffff1673ffffffffffffffffffffffffffffffffffffffff166370a08231306040518263ffffffff1660e01b8152600401808273ffffffffffffffffffffffffffffffffffffffff1673ffffffffffffffffffffffffffffffffffffffff16815260200191505060206040518083038186803b158015612d8357600080fd5b505afa158015612d97573d6000803e3d6000fd5b505050506040513d6020811015612dad57600080fd5b8101908080519060200190929190505050609960009054906101000a900473ffffffffffffffffffffffffffffffffffffffff1673ffffffffffffffffffffffffffffffffffffffff166370a08231306040518263ffffffff1660e01b8152600401808273ffffffffffffffffffffffffffffffffffffffff1673ffffffffffffffffffffffffffffffffffffffff16815260200191505060206040518083038186803b158015612e5d57600080fd5b505afa158015612e71573d6000803e3d6000fd5b505050506040513d6020811015612e8757600080fd5b81019080805190602001909291905050506000808d8d6040518963ffffffff1660e01b8152600401808973ffffffffffffffffffffffffffffffffffffffff1673ffffffffffffffffffffffffffffffffffffffff1681526020018873ffffffffffffffffffffffffffffffffffffffff1673ffffffffffffffffffffffffffffffffffffffff1681526020018781526020018681526020018581526020018481526020018373ffffffffffffffffffffffffffffffffffffffff1673ffffffffffffffffffffffffffffffffffffffff16815260200182815260200198505050505050505050606060405180830381600087803b158015612f8857600080fd5b505af1158015612f9c573d6000803e3d6000fd5b505050506040513d6060811015612fb257600080fd5b810190808051906020019092919080519060200190929190805190602001909291905050509091509050809450506000609a60009054906101000a900473ffffffffffffffffffffffffffffffffffffffff1673ffffffffffffffffffffffffffffffffffffffff166370a08231306040518263ffffffff1660e01b8152600401808273ffffffffffffffffffffffffffffffffffffffff1673ffffffffffffffffffffffffffffffffffffffff16815260200191505060206040518083038186803b15801561308157600080fd5b505afa158015613095573d6000803e3d6000fd5b505050506040513d60208110156130ab57600080fd5b810190808051906020019092919050505090506000609960009054906101000a900473ffffffffffffffffffffffffffffffffffffffff1673ffffffffffffffffffffffffffffffffffffffff166370a08231306040518263ffffffff1660e01b8152600401808273ffffffffffffffffffffffffffffffffffffffff1673ffffffffffffffffffffffffffffffffffffffff16815260200191505060206040518083038186803b15801561315f57600080fd5b505afa158015613173573d6000803e3d6000fd5b505050506040513d602081101561318957600080fd5b8101908080519060200190929190505050905060008211156131d3576131d2609a60009054906101000a900473ffffffffffffffffffffffffffffffffffffffff163384615f1a565b5b600081111561320a57613209609960009054906101000a900473ffffffffffffffffffffffffffffffffffffffff163383615f1a565b5b88861015613263576040517f08c379a0000000000000000000000000000000000000000000000000000000008152600401808060200182810382526034815260200180616cb76034913960400191505060405180910390fd5b505050505095945050505050565b6000606560009054906101000a900473ffffffffffffffffffffffffffffffffffffffff16905090565b609a60009054906101000a900473ffffffffffffffffffffffffffffffffffffffff1681565b60606132f1609a60009054906101000a900473ffffffffffffffffffffffffffffffffffffffff16333088615ca2565b6060600267ffffffffffffffff8111801561330b57600080fd5b5060405190808252806020026020018201604052801561333a5781602001602082028036833780820191505090505b509050609a60009054906101000a900473ffffffffffffffffffffffffffffffffffffffff168160008151811061336d57fe5b602002602001019073ffffffffffffffffffffffffffffffffffffffff16908173ffffffffffffffffffffffffffffffffffffffff1681525050609960009054906101000a900473ffffffffffffffffffffffffffffffffffffffff16816001815181106133d757fe5b602002602001019073ffffffffffffffffffffffffffffffffffffffff16908173ffffffffffffffffffffffffffffffffffffffff1681525050609960009054906101000a900473ffffffffffffffffffffffffffffffffffffffff1673ffffffffffffffffffffffffffffffffffffffff16632e1a7d4d60006040518263ffffffff1660e01b815260040180828152602001915050600060405180830381600087803b15801561348757600080fd5b505af115801561349b573d6000803e3d6000fd5b505050506060609760009054906101000a900473ffffffffffffffffffffffffffffffffffffffff1673ffffffffffffffffffffffffffffffffffffffff16638803dbee6134e888613f7e565b898530896040518663ffffffff1660e01b815260040180868152602001858152602001806020018473ffffffffffffffffffffffffffffffffffffffff1673ffffffffffffffffffffffffffffffffffffffff168152602001838152602001828103825285818151815260200191508051906020019060200280838360005b83811015613582578082015181840152602081019050613567565b505050509050019650505050505050600060405180830381600087803b1580156135ab57600080fd5b505af11580156135bf573d6000803e3d6000fd5b505050506040513d6000823e3d601f19601f8201168201806040525060208110156135e957600080fd5b810190808051604051939291908464010000000082111561360957600080fd5b8382019150602082018581111561361f57600080fd5b825186602082028301116401000000008211171561363c57600080fd5b8083526020830192505050908051906020019060200280838360005b83811015613673578082015181840152602081019050613658565b505050509050016040525050509050609960009054906101000a900473ffffffffffffffffffffffffffffffffffffffff1673ffffffffffffffffffffffffffffffffffffffff16632e1a7d4d826001815181106136cd57fe5b60200260200101516040518263ffffffff1660e01b815260040180828152602001915050600060405180830381600087803b15801561370b57600080fd5b505af115801561371f573d6000803e3d6000fd5b50505050600267ffffffffffffffff8111801561373b57600080fd5b5060405190808252806020026020018201604052801561376a5781602001602082028036833780820191505090505b5092508060008151811061377a57fe5b60200260200101518360008151811061378f57fe5b60200260200101818152505047836001815181106137a957fe5b6020026020010181815250506138bb609860009054906101000a900473ffffffffffffffffffffffffffffffffffffffff1686609860009054906101000a900473ffffffffffffffffffffffffffffffffffffffff1673ffffffffffffffffffffffffffffffffffffffff166370a08231306040518263ffffffff1660e01b8152600401808273ffffffffffffffffffffffffffffffffffffffff1673ffffffffffffffffffffffffffffffffffffffff16815260200191505060206040518083038186803b15801561387b57600080fd5b505afa15801561388f573d6000803e3d6000fd5b505050506040513d60208110156138a557600080fd5b8101908080519060200190929190505050615f1a565b826000815181106138c857fe5b602002602001015187111561392b5761392a609a60009054906101000a900473ffffffffffffffffffffffffffffffffffffffff16336139258660008151811061390e57fe5b60200260200101518b615ed090919063ffffffff16565b615f1a565b5b5050949350505050565b6000613965609b60009054906101000a900473ffffffffffffffffffffffffffffffffffffffff16333088615ca2565b6000609760009054906101000a900473ffffffffffffffffffffffffffffffffffffffff1673ffffffffffffffffffffffffffffffffffffffff1663baa2abde609a60009054906101000a900473ffffffffffffffffffffffffffffffffffffffff16609960009054906101000a900473ffffffffffffffffffffffffffffffffffffffff1689600080308a6040518863ffffffff1660e01b8152600401808873ffffffffffffffffffffffffffffffffffffffff1673ffffffffffffffffffffffffffffffffffffffff1681526020018773ffffffffffffffffffffffffffffffffffffffff1673ffffffffffffffffffffffffffffffffffffffff1681526020018681526020018581526020018481526020018373ffffffffffffffffffffffffffffffffffffffff1673ffffffffffffffffffffffffffffffffffffffff1681526020018281526020019750505050505050506040805180830381600087803b158015613ad457600080fd5b505af1158015613ae8573d6000803e3d6000fd5b505050506040513d6040811015613afe57600080fd5b8101908080519060200190929190805190602001909291905050509150506060600267ffffffffffffffff81118015613b3657600080fd5b50604051908082528060200260200182016040528015613b655781602001602082028036833780820191505090505b509050609960009054906101000a900473ffffffffffffffffffffffffffffffffffffffff1681600081518110613b9857fe5b602002602001019073ffffffffffffffffffffffffffffffffffffffff16908173ffffffffffffffffffffffffffffffffffffffff1681525050609a60009054906101000a900473ffffffffffffffffffffffffffffffffffffffff1681600181518110613c0257fe5b602002602001019073ffffffffffffffffffffffffffffffffffffffff16908173ffffffffffffffffffffffffffffffffffffffff1681525050609760009054906101000a900473ffffffffffffffffffffffffffffffffffffffff1673ffffffffffffffffffffffffffffffffffffffff166338ed17398360008489896040518663ffffffff1660e01b815260040180868152602001858152602001806020018473ffffffffffffffffffffffffffffffffffffffff1673ffffffffffffffffffffffffffffffffffffffff168152602001838152602001828103825285818151815260200191508051906020019060200280838360005b83811015613d16578082015181840152602081019050613cfb565b505050509050019650505050505050600060405180830381600087803b158015613d3f57600080fd5b505af1158015613d53573d6000803e3d6000fd5b505050506040513d6000823e3d601f19601f820116820180604052506020811015613d7d57600080fd5b8101908080516040519392919084640100000000821115613d9d57600080fd5b83820191506020820185811115613db357600080fd5b8251866020820283011164010000000082111715613dd057600080fd5b8083526020830192505050908051906020019060200280838360005b83811015613e07578082015181840152602081019050613dec565b5050505090500160405250505050613f1b609a60009054906101000a900473ffffffffffffffffffffffffffffffffffffffff1686609a60009054906101000a900473ffffffffffffffffffffffffffffffffffffffff1673ffffffffffffffffffffffffffffffffffffffff166370a08231306040518263ffffffff1660e01b8152600401808273ffffffffffffffffffffffffffffffffffffffff1673ffffffffffffffffffffffffffffffffffffffff16815260200191505060206040518083038186803b158015613edb57600080fd5b505afa158015613eef573d6000803e3d6000fd5b505050506040513d6020811015613f0557600080fd5b8101908080519060200190929190505050615f1a565b85831015613f74576040517f08c379a0000000000000000000000000000000000000000000000000000000008152600401808060200182810382526037815260200180616d6f6037913960400191505060405180910390fd5b5050949350505050565b600080609960009054906101000a900473ffffffffffffffffffffffffffffffffffffffff1673ffffffffffffffffffffffffffffffffffffffff1663626be5676040518163ffffffff1660e01b815260040160206040518083038186803b158015613fe957600080fd5b505afa158015613ffd573d6000803e3d6000fd5b505050506040513d602081101561401357600080fd5b810190808051906020019092919050505090506000811461411f5761411a8161410c60016140fe856140f0609960009054906101000a900473ffffffffffffffffffffffffffffffffffffffff1673ffffffffffffffffffffffffffffffffffffffff166318160ddd6040518163ffffffff1660e01b815260040160206040518083038186803b1580156140a657600080fd5b505afa1580156140ba573d6000803e3d6000fd5b505050506040513d60208110156140d057600080fd5b81019080805190602001909291905050508a61617c90919063ffffffff16565b61620290919063ffffffff16565b615ed090919063ffffffff16565b61628a90919063ffffffff16565b614121565b825b915050919050565b60008061415a609b60009054906101000a900473ffffffffffffffffffffffffffffffffffffffff1633308a615ca2565b6000609760009054906101000a900473ffffffffffffffffffffffffffffffffffffffff1673ffffffffffffffffffffffffffffffffffffffff1663baa2abde609a60009054906101000a900473ffffffffffffffffffffffffffffffffffffffff16609960009054906101000a900473ffffffffffffffffffffffffffffffffffffffff168b8b6000308b6040518863ffffffff1660e01b8152600401808873ffffffffffffffffffffffffffffffffffffffff1673ffffffffffffffffffffffffffffffffffffffff1681526020018773ffffffffffffffffffffffffffffffffffffffff1673ffffffffffffffffffffffffffffffffffffffff1681526020018681526020018581526020018481526020018373ffffffffffffffffffffffffffffffffffffffff1673ffffffffffffffffffffffffffffffffffffffff1681526020018281526020019750505050505050506040805180830381600087803b1580156142c957600080fd5b505af11580156142dd573d6000803e3d6000fd5b505050506040513d60408110156142f357600080fd5b8101908080519060200190929190805190602001909291905050508092508194505050614343609a60009054906101000a900473ffffffffffffffffffffffffffffffffffffffff168685615f1a565b609960009054906101000a900473ffffffffffffffffffffffffffffffffffffffff1673ffffffffffffffffffffffffffffffffffffffff16632e1a7d4d826040518263ffffffff1660e01b815260040180828152602001915050600060405180830381600087803b1580156143b857600080fd5b505af11580156143cc573d6000803e3d6000fd5b50505050609860009054906101000a900473ffffffffffffffffffffffffffffffffffffffff1673ffffffffffffffffffffffffffffffffffffffff166370a08231306040518263ffffffff1660e01b8152600401808273ffffffffffffffffffffffffffffffffffffffff1673ffffffffffffffffffffffffffffffffffffffff16815260200191505060206040518083038186803b15801561446f57600080fd5b505afa158015614483573d6000803e3d6000fd5b505050506040513d602081101561449957600080fd5b8101908080519060200190929190505050915060008211156145bc576145bb609860009054906101000a900473ffffffffffffffffffffffffffffffffffffffff1633609860009054906101000a900473ffffffffffffffffffffffffffffffffffffffff1673ffffffffffffffffffffffffffffffffffffffff166370a08231306040518263ffffffff1660e01b8152600401808273ffffffffffffffffffffffffffffffffffffffff1673ffffffffffffffffffffffffffffffffffffffff16815260200191505060206040518083038186803b15801561457b57600080fd5b505afa15801561458f573d6000803e3d6000fd5b505050506040513d60208110156145a557600080fd5b8101908080519060200190929190505050615f1a565b5b85821015614615576040517f08c379a0000000000000000000000000000000000000000000000000000000008152600401808060200182810382526035815260200180616da66035913960400191505060405180910390fd5b509550959350505050565b6060614650609a60009054906101000a900473ffffffffffffffffffffffffffffffffffffffff16333088615ca2565b6060600267ffffffffffffffff8111801561466a57600080fd5b506040519080825280602002602001820160405280156146995781602001602082028036833780820191505090505b509050609a60009054906101000a900473ffffffffffffffffffffffffffffffffffffffff16816000815181106146cc57fe5b602002602001019073ffffffffffffffffffffffffffffffffffffffff16908173ffffffffffffffffffffffffffffffffffffffff1681525050609960009054906101000a900473ffffffffffffffffffffffffffffffffffffffff168160018151811061473657fe5b602002602001019073ffffffffffffffffffffffffffffffffffffffff16908173ffffffffffffffffffffffffffffffffffffffff16815250506060609760009054906101000a900473ffffffffffffffffffffffffffffffffffffffff1673ffffffffffffffffffffffffffffffffffffffff166338ed17398860008530896040518663ffffffff1660e01b815260040180868152602001858152602001806020018473ffffffffffffffffffffffffffffffffffffffff1673ffffffffffffffffffffffffffffffffffffffff168152602001838152602001828103825285818151815260200191508051906020019060200280838360005b8381101561484c578082015181840152602081019050614831565b505050509050019650505050505050600060405180830381600087803b15801561487557600080fd5b505af1158015614889573d6000803e3d6000fd5b505050506040513d6000823e3d601f19601f8201168201806040525060208110156148b357600080fd5b81019080805160405193929190846401000000008211156148d357600080fd5b838201915060208201858111156148e957600080fd5b825186602082028301116401000000008211171561490657600080fd5b8083526020830192505050908051906020019060200280838360005b8381101561493d578082015181840152602081019050614922565b505050509050016040525050509050609960009054906101000a900473ffffffffffffffffffffffffffffffffffffffff1673ffffffffffffffffffffffffffffffffffffffff16632e1a7d4d8260018151811061499757fe5b60200260200101516040518263ffffffff1660e01b815260040180828152602001915050600060405180830381600087803b1580156149d557600080fd5b505af11580156149e9573d6000803e3d6000fd5b50505050600267ffffffffffffffff81118015614a0557600080fd5b50604051908082528060200260200182016040528015614a345781602001602082028036833780820191505090505b50925080600081518110614a4457fe5b602002602001015183600081518110614a5957fe5b602002602001018181525050609860009054906101000a900473ffffffffffffffffffffffffffffffffffffffff1673ffffffffffffffffffffffffffffffffffffffff166370a08231306040518263ffffffff1660e01b8152600401808273ffffffffffffffffffffffffffffffffffffffff1673ffffffffffffffffffffffffffffffffffffffff16815260200191505060206040518083038186803b158015614b0457600080fd5b505afa158015614b18573d6000803e3d6000fd5b505050506040513d6020811015614b2e57600080fd5b810190808051906020019092919050505083600181518110614b4c57fe5b602002602001018181525050614b99609860009054906101000a900473ffffffffffffffffffffffffffffffffffffffff168685600181518110614b8c57fe5b6020026020010151615f1a565b8583600181518110614ba757fe5b60200260200101511015614c06576040517f08c379a0000000000000000000000000000000000000000000000000000000008152600401808060200182810382526035815260200180616da66035913960400191505060405180910390fd5b5050949350505050565b6060614c40609860009054906101000a900473ffffffffffffffffffffffffffffffffffffffff16333088615ca2565b609960009054906101000a900473ffffffffffffffffffffffffffffffffffffffff1673ffffffffffffffffffffffffffffffffffffffff1663b6b55f25866040518263ffffffff1660e01b815260040180828152602001915050600060405180830381600087803b158015614cb557600080fd5b505af1158015614cc9573d6000803e3d6000fd5b505050506060600267ffffffffffffffff81118015614ce757600080fd5b50604051908082528060200260200182016040528015614d165781602001602082028036833780820191505090505b509050609960009054906101000a900473ffffffffffffffffffffffffffffffffffffffff1681600081518110614d4957fe5b602002602001019073ffffffffffffffffffffffffffffffffffffffff16908173ffffffffffffffffffffffffffffffffffffffff1681525050609a60009054906101000a900473ffffffffffffffffffffffffffffffffffffffff1681600181518110614db357fe5b602002602001019073ffffffffffffffffffffffffffffffffffffffff16908173ffffffffffffffffffffffffffffffffffffffff16815250506060609760009054906101000a900473ffffffffffffffffffffffffffffffffffffffff1673ffffffffffffffffffffffffffffffffffffffff166338ed1739609960009054906101000a900473ffffffffffffffffffffffffffffffffffffffff1673ffffffffffffffffffffffffffffffffffffffff166370a08231306040518263ffffffff1660e01b8152600401808273ffffffffffffffffffffffffffffffffffffffff1673ffffffffffffffffffffffffffffffffffffffff16815260200191505060206040518083038186803b158015614ecc57600080fd5b505afa158015614ee0573d6000803e3d6000fd5b505050506040513d6020811015614ef657600080fd5b8101908080519060200190929190505050888589896040518663ffffffff1660e01b815260040180868152602001858152602001806020018473ffffffffffffffffffffffffffffffffffffffff1673ffffffffffffffffffffffffffffffffffffffff168152602001838152602001828103825285818151815260200191508051906020019060200280838360005b83811015614fa1578082015181840152602081019050614f86565b505050509050019650505050505050600060405180830381600087803b158015614fca57600080fd5b505af1158015614fde573d6000803e3d6000fd5b505050506040513d6000823e3d601f19601f82011682018060405250602081101561500857600080fd5b810190808051604051939291908464010000000082111561502857600080fd5b8382019150602082018581111561503e57600080fd5b825186602082028301116401000000008211171561505b57600080fd5b8083526020830192505050908051906020019060200280838360005b83811015615092578082015181840152602081019050615077565b505050509050016040525050509050600267ffffffffffffffff811180156150b957600080fd5b506040519080825280602002602001820160405280156150e85781602001602082028036833780820191505090505b50925086836000815181106150f957fe5b6020026020010181815250508060018151811061511257fe5b60200260200101518360018151811061512757fe5b6020026020010181815250505050949350505050565b615145616113565b73ffffffffffffffffffffffffffffffffffffffff16606560009054906101000a900473ffffffffffffffffffffffffffffffffffffffff1673ffffffffffffffffffffffffffffffffffffffff1614615207576040517f08c379a00000000000000000000000000000000000000000000000000000000081526004018080602001828103825260208152602001807f4f776e61626c653a2063616c6c6572206973206e6f7420746865206f776e657281525060200191505060405180910390fd5b600073ffffffffffffffffffffffffffffffffffffffff168173ffffffffffffffffffffffffffffffffffffffff16141561528d576040517f08c379a0000000000000000000000000000000000000000000000000000000008152600401808060200182810382526026815260200180616c916026913960400191505060405180910390fd5b8073ffffffffffffffffffffffffffffffffffffffff16606560009054906101000a900473ffffffffffffffffffffffffffffffffffffffff1673ffffffffffffffffffffffffffffffffffffffff167f8be0079c531659141344cd1fd0a4f28419497f9722a3daafe3b4186f6b6457e060405160405180910390a380606560006101000a81548173ffffffffffffffffffffffffffffffffffffffff021916908373ffffffffffffffffffffffffffffffffffffffff16021790555050565b609760009054906101000a900473ffffffffffffffffffffffffffffffffffffffff1681565b600060019054906101000a900460ff168061539257506153916162d4565b5b806153a957506000809054906101000a900460ff16155b6153fe576040517f08c379a000000000000000000000000000000000000000000000000000000000815260040180806020018281038252602e815260200180616d41602e913960400191505060405180910390fd5b60008060019054906101000a900460ff16159050801561544e576001600060016101000a81548160ff02191690831515021790555060016000806101000a81548160ff0219169083151502179055505b6154566162eb565b84609760006101000a81548173ffffffffffffffffffffffffffffffffffffffff021916908373ffffffffffffffffffffffffffffffffffffffff16021790555083609860006101000a81548173ffffffffffffffffffffffffffffffffffffffff021916908373ffffffffffffffffffffffffffffffffffffffff16021790555082609960006101000a81548173ffffffffffffffffffffffffffffffffffffffff021916908373ffffffffffffffffffffffffffffffffffffffff16021790555081609a60006101000a81548173ffffffffffffffffffffffffffffffffffffffff021916908373ffffffffffffffffffffffffffffffffffffffff1602179055506000609760009054906101000a900473ffffffffffffffffffffffffffffffffffffffff1673ffffffffffffffffffffffffffffffffffffffff1663c45a01556040518163ffffffff1660e01b815260040160206040518083038186803b1580156155c457600080fd5b505afa1580156155d8573d6000803e3d6000fd5b505050506040513d60208110156155ee57600080fd5b8101908080519060200190929190505050905061565081609960009054906101000a900473ffffffffffffffffffffffffffffffffffffffff16609a60009054906101000a900473ffffffffffffffffffffffffffffffffffffffff166163fa565b609b60006101000a81548173ffffffffffffffffffffffffffffffffffffffff021916908373ffffffffffffffffffffffffffffffffffffffff160217905550609b60009054906101000a900473ffffffffffffffffffffffffffffffffffffffff1673ffffffffffffffffffffffffffffffffffffffff1663095ea7b3609760009054906101000a900473ffffffffffffffffffffffffffffffffffffffff167fffffffffffffffffffffffffffffffffffffffffffffffffffffffffffffffff6040518363ffffffff1660e01b8152600401808373ffffffffffffffffffffffffffffffffffffffff1673ffffffffffffffffffffffffffffffffffffffff16815260200182815260200192505050602060405180830381600087803b15801561577b57600080fd5b505af115801561578f573d6000803e3d6000fd5b505050506040513d60208110156157a557600080fd5b810190808051906020019092919050505050609960009054906101000a900473ffffffffffffffffffffffffffffffffffffffff1673ffffffffffffffffffffffffffffffffffffffff1663095ea7b3609760009054906101000a900473ffffffffffffffffffffffffffffffffffffffff167fffffffffffffffffffffffffffffffffffffffffffffffffffffffffffffffff6040518363ffffffff1660e01b8152600401808373ffffffffffffffffffffffffffffffffffffffff1673ffffffffffffffffffffffffffffffffffffffff16815260200182815260200192505050602060405180830381600087803b1580156158a257600080fd5b505af11580156158b6573d6000803e3d6000fd5b505050506040513d60208110156158cc57600080fd5b810190808051906020019092919050505050609860009054906101000a900473ffffffffffffffffffffffffffffffffffffffff1673ffffffffffffffffffffffffffffffffffffffff1663095ea7b3609760009054906101000a900473ffffffffffffffffffffffffffffffffffffffff167fffffffffffffffffffffffffffffffffffffffffffffffffffffffffffffffff6040518363ffffffff1660e01b8152600401808373ffffffffffffffffffffffffffffffffffffffff1673ffffffffffffffffffffffffffffffffffffffff16815260200182815260200192505050602060405180830381600087803b1580156159c957600080fd5b505af11580156159dd573d6000803e3d6000fd5b505050506040513d60208110156159f357600080fd5b810190808051906020019092919050505050609a60009054906101000a900473ffffffffffffffffffffffffffffffffffffffff1673ffffffffffffffffffffffffffffffffffffffff1663095ea7b3609760009054906101000a900473ffffffffffffffffffffffffffffffffffffffff167fffffffffffffffffffffffffffffffffffffffffffffffffffffffffffffffff6040518363ffffffff1660e01b8152600401808373ffffffffffffffffffffffffffffffffffffffff1673ffffffffffffffffffffffffffffffffffffffff16815260200182815260200192505050602060405180830381600087803b158015615af057600080fd5b505af1158015615b04573d6000803e3d6000fd5b505050506040513d6020811015615b1a57600080fd5b810190808051906020019092919050505050609860009054906101000a900473ffffffffffffffffffffffffffffffffffffffff1673ffffffffffffffffffffffffffffffffffffffff1663095ea7b3609960009054906101000a900473ffffffffffffffffffffffffffffffffffffffff167fffffffffffffffffffffffffffffffffffffffffffffffffffffffffffffffff6040518363ffffffff1660e01b8152600401808373ffffffffffffffffffffffffffffffffffffffff1673ffffffffffffffffffffffffffffffffffffffff16815260200182815260200192505050602060405180830381600087803b158015615c1757600080fd5b505af1158015615c2b573d6000803e3d6000fd5b505050506040513d6020811015615c4157600080fd5b810190808051906020019092919050505050508015615c755760008060016101000a81548160ff0219169083151502179055505b5050505050565b609860009054906101000a900473ffffffffffffffffffffffffffffffffffffffff1681565b600060608573ffffffffffffffffffffffffffffffffffffffff166323b872dd868686604051602401808473ffffffffffffffffffffffffffffffffffffffff1673ffffffffffffffffffffffffffffffffffffffff1681526020018373ffffffffffffffffffffffffffffffffffffffff1673ffffffffffffffffffffffffffffffffffffffff16815260200182815260200193505050506040516020818303038152906040529060e01b6020820180517bffffffffffffffffffffffffffffffffffffffffffffffffffffffff83818316178352505050506040518082805190602001908083835b60208310615daf5780518252602082019150602081019050602083039250615d8c565b6001836020036101000a0380198251168184511680821785525050505050509050019150506000604051808303816000865af19150503d8060008114615e11576040519150601f19603f3d011682016040523d82523d6000602084013e615e16565b606091505b5091509150818015615e565750600081511480615e555750808060200190516020811015615e4357600080fd5b81019080805190602001909291905050505b5b615ec8576040517f08c379a00000000000000000000000000000000000000000000000000000000081526004018080602001828103825260118152602001807f21736166655472616e7366657246726f6d00000000000000000000000000000081525060200191505060405180910390fd5b505050505050565b6000615f1283836040518060400160405280601e81526020017f536166654d6174683a207375627472616374696f6e206f766572666c6f7700008152506164f1565b905092915050565b600060608473ffffffffffffffffffffffffffffffffffffffff1663a9059cbb8585604051602401808373ffffffffffffffffffffffffffffffffffffffff1673ffffffffffffffffffffffffffffffffffffffff168152602001828152602001925050506040516020818303038152906040529060e01b6020820180517bffffffffffffffffffffffffffffffffffffffffffffffffffffffff83818316178352505050506040518082805190602001908083835b60208310615ff35780518252602082019150602081019050602083039250615fd0565b6001836020036101000a0380198251168184511680821785525050505050509050019150506000604051808303816000865af19150503d8060008114616055576040519150601f19603f3d011682016040523d82523d6000602084013e61605a565b606091505b509150915081801561609a5750600081511480616099575080806020019051602081101561608757600080fd5b81019080805190602001909291905050505b5b61610c576040517f08c379a000000000000000000000000000000000000000000000000000000000815260040180806020018281038252600d8152602001807f21736166655472616e736665720000000000000000000000000000000000000081525060200191505060405180910390fd5b5050505050565b600033905090565b600080616131848661617c90919063ffffffff16565b616144848861617c90919063ffffffff16565b1061616057616155868686866165b1565b915060009050616173565b61616c858785876165b1565b9150600190505b94509492505050565b60008083141561618f57600090506161fc565b60008284029050828482816161a057fe5b04146161f7576040517f08c379a0000000000000000000000000000000000000000000000000000000008152600401808060200182810382526021815260200180616d206021913960400191505060405180910390fd5b809150505b92915050565b600080828401905083811015616280576040517f08c379a000000000000000000000000000000000000000000000000000000000815260040180806020018281038252601b8152602001807f536166654d6174683a206164646974696f6e206f766572666c6f77000000000081525060200191505060405180910390fd5b8091505092915050565b60006162cc83836040518060400160405280601a81526020017f536166654d6174683a206469766973696f6e206279207a65726f0000000000008152506167a6565b905092915050565b6000803090506000813b9050600081149250505090565b600060019054906101000a900460ff168061630a57506163096162d4565b5b8061632157506000809054906101000a900460ff16155b616376576040517f08c379a000000000000000000000000000000000000000000000000000000000815260040180806020018281038252602e815260200180616d41602e913960400191505060405180910390fd5b60008060019054906101000a900460ff1615905080156163c6576001600060016101000a81548160ff02191690831515021790555060016000806101000a81548160ff0219169083151502179055505b6163ce61686c565b6163d661696b565b80156163f75760008060016101000a81548160ff0219169083151502179055505b50565b60008373ffffffffffffffffffffffffffffffffffffffff1663e6a4390584846040518363ffffffff1660e01b8152600401808373ffffffffffffffffffffffffffffffffffffffff1673ffffffffffffffffffffffffffffffffffffffff1681526020018273ffffffffffffffffffffffffffffffffffffffff1673ffffffffffffffffffffffffffffffffffffffff1681526020019250505060206040518083038186803b1580156164ad57600080fd5b505afa1580156164c1573d6000803e3d6000fd5b505050506040513d60208110156164d757600080fd5b810190808051906020019092919050505090509392505050565b600083831115829061659e576040517f08c379a00000000000000000000000000000000000000000000000000000000081526004018080602001828103825283818151815260200191508051906020019080838360005b83811015616563578082015181840152602081019050616548565b50505050905090810190601f1680156165905780820380516001836020036101000a031916815260200191505b509250505060405180910390fd5b5060008385039050809150509392505050565b60006165c6838561617c90919063ffffffff16565b6165d9838761617c90919063ffffffff16565b101561664d576040517f08c379a00000000000000000000000000000000000000000000000000000000081526004018080602001828103825260088152602001807f526576657273656400000000000000000000000000000000000000000000000081525060200191505060405180910390fd5b60006103e59050600061666b856107cd61617c90919063ffffffff16565b905060006166a6616685878961617c90919063ffffffff16565b616698878b61617c90919063ffffffff16565b615ed090919063ffffffff16565b905060006166f5876166e76166c4898c61620290919063ffffffff16565b6166d96103e88761617c90919063ffffffff16565b61628a90919063ffffffff16565b61617c90919063ffffffff16565b9050600061671f6004616711848861617c90919063ffffffff16565b61617c90919063ffffffff16565b9050600061675061674b8361673d888961617c90919063ffffffff16565b61620290919063ffffffff16565b616b13565b905060006167678683615ed090919063ffffffff16565b9050600061677f60028961617c90919063ffffffff16565b9050616794818361628a90919063ffffffff16565b98505050505050505050949350505050565b60008083118290616852576040517f08c379a00000000000000000000000000000000000000000000000000000000081526004018080602001828103825283818151815260200191508051906020019080838360005b838110156168175780820151818401526020810190506167fc565b50505050905090810190601f1680156168445780820380516001836020036101000a031916815260200191505b509250505060405180910390fd5b50600083858161685e57fe5b049050809150509392505050565b600060019054906101000a900460ff168061688b575061688a6162d4565b5b806168a257506000809054906101000a900460ff16155b6168f7576040517f08c379a000000000000000000000000000000000000000000000000000000000815260040180806020018281038252602e815260200180616d41602e913960400191505060405180910390fd5b60008060019054906101000a900460ff161590508015616947576001600060016101000a81548160ff02191690831515021790555060016000806101000a81548160ff0219169083151502179055505b80156169685760008060016101000a81548160ff0219169083151502179055505b50565b600060019054906101000a900460ff168061698a57506169896162d4565b5b806169a157506000809054906101000a900460ff16155b6169f6576040517f08c379a000000000000000000000000000000000000000000000000000000000815260040180806020018281038252602e815260200180616d41602e913960400191505060405180910390fd5b60008060019054906101000a900460ff161590508015616a46576001600060016101000a81548160ff02191690831515021790555060016000806101000a81548160ff0219169083151502179055505b6000616a50616113565b905080606560006101000a81548173ffffffffffffffffffffffffffffffffffffffff021916908373ffffffffffffffffffffffffffffffffffffffff1602179055508073ffffffffffffffffffffffffffffffffffffffff16600073ffffffffffffffffffffffffffffffffffffffff167f8be0079c531659141344cd1fd0a4f28419497f9722a3daafe3b4186f6b6457e060405160405180910390a3508015616b105760008060016101000a81548160ff0219169083151502179055505b50565b600080821415616b265760009050616c8b565b60008290506000600190507001000000000000000000000000000000008210616b5857608082901c9150604081901b90505b680100000000000000008210616b7757604082901c9150602081901b90505b6401000000008210616b9257602082901c9150601081901b90505b620100008210616bab57601082901c9150600881901b90505b6101008210616bc357600882901c9150600481901b90505b60108210616bda57600482901c9150600281901b90505b60088210616bea57600181901b90505b6001818581616bf557fe5b048201901c90506001818581616c0757fe5b048201901c90506001818581616c1957fe5b048201901c90506001818581616c2b57fe5b048201901c90506001818581616c3d57fe5b048201901c90506001818581616c4f57fe5b048201901c90506001818581616c6157fe5b048201901c90506000818581616c7357fe5b049050808210616c835780616c85565b815b93505050505b91905056fe4f776e61626c653a206e6577206f776e657220697320746865207a65726f20616464726573734962546f6b656e526f757465723a2072656365697665206c657373206c70546f6b656e207468616e20616d6f756e744c504d696e4962546f6b656e526f757465723a2072657175697265206d6f726520746f6b656e207468616e20616d6f756e74546f6b656e4d696e536166654d6174683a206d756c7469706c69636174696f6e206f766572666c6f77436f6e747261637420696e7374616e63652068617320616c7265616479206265656e20696e697469616c697a65644962546f6b656e526f757465723a2072656365697665206c65737320416c70616361207468616e20616d6f756e74416c706163614d696e4962546f6b656e526f757465723a2072656365697665206c65737320546f6b656e207468616e20616d6f756e74546f6b656e6d696ea26469706673582212206b2bd68abb001ef94a2168a27d496e506d0f2d7d1b291d0c3b7c04ca5dc71cfd64736f6c63430006060033",
  "linkReferences": {},
  "deployedLinkReferences": {}
}