{
  "_format": "hh-sol-artifact-1",
  "contractName": "WorkerConfig",
  "sourceName": "contracts/protocol/workers/WorkerConfig.sol",
  "abi": [
    {
      "anonymous": false,
      "inputs": [
        {
          "indexed": true,
          "internalType": "address",
          "name": "previousOwner",
          "type": "address"
        },
        {
          "indexed": true,
          "internalType": "address",
          "name": "newOwner",
          "type": "address"
        }
      ],
      "name": "OwnershipTransferred",
      "type": "event"
    },
    {
      "inputs": [
        {
          "internalType": "address",
          "name": "worker",
          "type": "address"
        }
      ],
      "name": "acceptDebt",
      "outputs": [
        {
          "internalType": "bool",
          "name": "",
          "type": "bool"
        }
      ],
      "stateMutability": "view",
      "type": "function"
    },
    {
      "inputs": [
        {
          "internalType": "contract PriceOracle",
          "name": "_oracle",
          "type": "address"
        }
      ],
      "name": "initialize",
      "outputs": [],
      "stateMutability": "nonpayable",
      "type": "function"
    },
    {
      "inputs": [
        {
          "internalType": "address",
          "name": "worker",
          "type": "address"
        }
      ],
      "name": "isStable",
      "outputs": [
        {
          "internalType": "bool",
          "name": "",
          "type": "bool"
        }
      ],
      "stateMutability": "view",
      "type": "function"
    },
    {
      "inputs": [
        {
          "internalType": "address",
          "name": "worker",
          "type": "address"
        },
        {
          "internalType": "uint256",
          "name": "",
          "type": "uint256"
        }
      ],
      "name": "killFactor",
      "outputs": [
        {
          "internalType": "uint256",
          "name": "",
          "type": "uint256"
        }
      ],
      "stateMutability": "view",
      "type": "function"
    },
    {
      "inputs": [],
      "name": "oracle",
      "outputs": [
        {
          "internalType": "contract PriceOracle",
          "name": "",
          "type": "address"
        }
      ],
      "stateMutability": "view",
      "type": "function"
    },
    {
      "inputs": [],
      "name": "owner",
      "outputs": [
        {
          "internalType": "address",
          "name": "",
          "type": "address"
        }
      ],
      "stateMutability": "view",
      "type": "function"
    },
    {
      "inputs": [],
      "name": "renounceOwnership",
      "outputs": [],
      "stateMutability": "nonpayable",
      "type": "function"
    },
    {
      "inputs": [
        {
          "internalType": "address[]",
          "name": "addrs",
          "type": "address[]"
        },
        {
          "components": [
            {
              "internalType": "bool",
              "name": "acceptDebt",
              "type": "bool"
            },
            {
              "internalType": "uint64",
              "name": "workFactor",
              "type": "uint64"
            },
            {
              "internalType": "uint64",
              "name": "killFactor",
              "type": "uint64"
            },
            {
              "internalType": "uint64",
              "name": "maxPriceDiff",
              "type": "uint64"
            }
          ],
          "internalType": "struct WorkerConfig.Config[]",
          "name": "configs",
          "type": "tuple[]"
        }
      ],
      "name": "setConfigs",
      "outputs": [],
      "stateMutability": "nonpayable",
      "type": "function"
    },
    {
      "inputs": [
        {
          "internalType": "contract PriceOracle",
          "name": "_oracle",
          "type": "address"
        }
      ],
      "name": "setOracle",
      "outputs": [],
      "stateMutability": "nonpayable",
      "type": "function"
    },
    {
      "inputs": [
        {
          "internalType": "address",
          "name": "newOwner",
          "type": "address"
        }
      ],
      "name": "transferOwnership",
      "outputs": [],
      "stateMutability": "nonpayable",
      "type": "function"
    },
    {
      "inputs": [
        {
          "internalType": "address",
          "name": "worker",
          "type": "address"
        },
        {
          "internalType": "uint256",
          "name": "",
          "type": "uint256"
        }
      ],
      "name": "workFactor",
      "outputs": [
        {
          "internalType": "uint256",
          "name": "",
          "type": "uint256"
        }
      ],
      "stateMutability": "view",
      "type": "function"
    },
    {
      "inputs": [
        {
          "internalType": "address",
          "name": "",
          "type": "address"
        }
      ],
      "name": "workers",
      "outputs": [
        {
          "internalType": "bool",
          "name": "acceptDebt",
          "type": "bool"
        },
        {
          "internalType": "uint64",
          "name": "workFactor",
          "type": "uint64"
        },
        {
          "internalType": "uint64",
          "name": "killFactor",
          "type": "uint64"
        },
        {
          "internalType": "uint64",
          "name": "maxPriceDiff",
          "type": "uint64"
        }
      ],
      "stateMutability": "view",
      "type": "function"
    }
  ],
  "bytecode": "0x608060405234801561001057600080fd5b50612441806100206000396000f3fe608060405234801561001057600080fd5b50600436106100b35760003560e01c80637dc0d1d0116100715780637dc0d1d01461018d5780638da5cb5b146101ab5780639185f6ec146101c9578063ad58e573146101f9578063c4d66de814610229578063f2fde38b14610245576100b3565b80620237f0146100b85780630e803bf5146100e857806313f6321b146101045780634048a25714610134578063715018a6146101675780637adbf97314610171575b600080fd5b6100d260048036038101906100cd91906119b8565b610261565b6040516100df919061200d565b60405180910390f35b61010260048036038101906100fd9190611a46565b610302565b005b61011e60048036038101906101199190611a0a565b6105e5565b60405161012b919061220a565b60405180910390f35b61014e600480360381019061014991906119b8565b610698565b60405161015e9493929190612028565b60405180910390f35b61016f610711565b005b61018b60048036038101906101869190611b0d565b610869565b005b610195610944565b6040516101a2919061206d565b60405180910390f35b6101b361096a565b6040516101c09190611fc9565b60405180910390f35b6101e360048036038101906101de91906119b8565b610994565b6040516101f0919061200d565b60405180910390f35b610213600480360381019061020e9190611a0a565b610f64565b604051610220919061220a565b60405180910390f35b610243600480360381019061023e9190611b0d565b611017565b005b61025f600480360381019061025a91906119b8565b61114a565b005b600061026c82610994565b6102ab576040517f08c379a00000000000000000000000000000000000000000000000000000000081526004016102a29061210a565b60405180910390fd5b609860008373ffffffffffffffffffffffffffffffffffffffff1673ffffffffffffffffffffffffffffffffffffffff16815260200190815260200160002060000160009054906101000a900460ff169050919050565b61030a611311565b73ffffffffffffffffffffffffffffffffffffffff16606560009054906101000a900473ffffffffffffffffffffffffffffffffffffffff1673ffffffffffffffffffffffffffffffffffffffff1614610399576040517f08c379a00000000000000000000000000000000000000000000000000000000081526004016103909061216a565b60405180910390fd5b60008484905090508083839050146103e6576040517f08c379a00000000000000000000000000000000000000000000000000000000081526004016103dd906121ca565b60405180910390fd5b60008090505b818110156105dd57604051806080016040528085858481811061040b57fe5b90506080020160000160208101906104239190611abb565b1515815260200185858481811061043657fe5b905060800201602001602081019061044e9190611bea565b67ffffffffffffffff16815260200185858481811061046957fe5b90506080020160400160208101906104819190611bea565b67ffffffffffffffff16815260200185858481811061049c57fe5b90506080020160600160208101906104b49190611bea565b67ffffffffffffffff16815250609860008888858181106104d157fe5b90506020020160208101906104e691906119b8565b73ffffffffffffffffffffffffffffffffffffffff1673ffffffffffffffffffffffffffffffffffffffff16815260200190815260200160002060008201518160000160006101000a81548160ff02191690831515021790555060208201518160000160016101000a81548167ffffffffffffffff021916908367ffffffffffffffff16021790555060408201518160000160096101000a81548167ffffffffffffffff021916908367ffffffffffffffff16021790555060608201518160000160116101000a81548167ffffffffffffffff021916908367ffffffffffffffff16021790555090505080806001019150506103ec565b505050505050565b60006105f083610994565b61062f576040517f08c379a00000000000000000000000000000000000000000000000000000000081526004016106269061210a565b60405180910390fd5b609860008473ffffffffffffffffffffffffffffffffffffffff1673ffffffffffffffffffffffffffffffffffffffff16815260200190815260200160002060000160099054906101000a900467ffffffffffffffff1667ffffffffffffffff16905092915050565b60986020528060005260406000206000915090508060000160009054906101000a900460ff16908060000160019054906101000a900467ffffffffffffffff16908060000160099054906101000a900467ffffffffffffffff16908060000160119054906101000a900467ffffffffffffffff16905084565b610719611311565b73ffffffffffffffffffffffffffffffffffffffff16606560009054906101000a900473ffffffffffffffffffffffffffffffffffffffff1673ffffffffffffffffffffffffffffffffffffffff16146107a8576040517f08c379a000000000000000000000000000000000000000000000000000000000815260040161079f9061216a565b60405180910390fd5b600073ffffffffffffffffffffffffffffffffffffffff16606560009054906101000a900473ffffffffffffffffffffffffffffffffffffffff1673ffffffffffffffffffffffffffffffffffffffff167f8be0079c531659141344cd1fd0a4f28419497f9722a3daafe3b4186f6b6457e060405160405180910390a36000606560006101000a81548173ffffffffffffffffffffffffffffffffffffffff021916908373ffffffffffffffffffffffffffffffffffffffff160217905550565b610871611311565b73ffffffffffffffffffffffffffffffffffffffff16606560009054906101000a900473ffffffffffffffffffffffffffffffffffffffff1673ffffffffffffffffffffffffffffffffffffffff1614610900576040517f08c379a00000000000000000000000000000000000000000000000000000000081526004016108f79061216a565b60405180910390fd5b80609760006101000a81548173ffffffffffffffffffffffffffffffffffffffff021916908373ffffffffffffffffffffffffffffffffffffffff16021790555050565b609760009054906101000a900473ffffffffffffffffffffffffffffffffffffffff1681565b6000606560009054906101000a900473ffffffffffffffffffffffffffffffffffffffff16905090565b6000808273ffffffffffffffffffffffffffffffffffffffff16635fcbd2856040518163ffffffff1660e01b815260040160206040518083038186803b1580156109dd57600080fd5b505afa1580156109f1573d6000803e3d6000fd5b505050506040513d601f19601f82011682018060405250810190610a159190611ae4565b905060008173ffffffffffffffffffffffffffffffffffffffff16630dfe16816040518163ffffffff1660e01b815260040160206040518083038186803b158015610a5f57600080fd5b505afa158015610a73573d6000803e3d6000fd5b505050506040513d601f19601f82011682018060405250810190610a9791906119e1565b905060008273ffffffffffffffffffffffffffffffffffffffff1663d21220a76040518163ffffffff1660e01b815260040160206040518083038186803b158015610ae157600080fd5b505afa158015610af5573d6000803e3d6000fd5b505050506040513d601f19601f82011682018060405250810190610b1991906119e1565b90506000808473ffffffffffffffffffffffffffffffffffffffff16630902f1ac6040518163ffffffff1660e01b815260040160606040518083038186803b158015610b6457600080fd5b505afa158015610b78573d6000803e3d6000fd5b505050506040513d601f19601f82011682018060405250810190610b9c9190611b36565b506dffffffffffffffffffffffffffff1691506dffffffffffffffffffffffffffff1691506000610bec868673ffffffffffffffffffffffffffffffffffffffff1661131990919063ffffffff16565b90506000610c19878673ffffffffffffffffffffffffffffffffffffffff1661131990919063ffffffff16565b9050610c2f6065856113ac90919063ffffffff16565b610c436064846113ac90919063ffffffff16565b1115610c84576040517f08c379a0000000000000000000000000000000000000000000000000000000008152600401610c7b9061218a565b60405180910390fd5b610c986065846113ac90919063ffffffff16565b610cac6064836113ac90919063ffffffff16565b1115610ced576040517f08c379a0000000000000000000000000000000000000000000000000000000008152600401610ce4906120ea565b60405180910390fd5b600080609760009054906101000a900473ffffffffffffffffffffffffffffffffffffffff1673ffffffffffffffffffffffffffffffffffffffff1663ac41865a89896040518363ffffffff1660e01b8152600401610d4d929190611fe4565b604080518083038186803b158015610d6457600080fd5b505afa158015610d78573d6000803e3d6000fd5b505050506040513d601f19601f82011682018060405250810190610d9c9190611bae565b9150915062093a804203811015610de8576040517f08c379a0000000000000000000000000000000000000000000000000000000008152600401610ddf9061212a565b60405180910390fd5b6000610e1787610e09670de0b6b3a7640000896113ac90919063ffffffff16565b61141c90919063ffffffff16565b90506000609860008e73ffffffffffffffffffffffffffffffffffffffff1673ffffffffffffffffffffffffffffffffffffffff16815260200190815260200160002060000160119054906101000a900467ffffffffffffffff1667ffffffffffffffff169050610ea5612710610e9783876113ac90919063ffffffff16565b61141c90919063ffffffff16565b821115610ee7576040517f08c379a0000000000000000000000000000000000000000000000000000000008152600401610ede906121ea565b60405180910390fd5b610f0e81610f00612710876113ac90919063ffffffff16565b61141c90919063ffffffff16565b821015610f50576040517f08c379a0000000000000000000000000000000000000000000000000000000008152600401610f47906120ca565b60405180910390fd5b60019b505050505050505050505050919050565b6000610f6f83610994565b610fae576040517f08c379a0000000000000000000000000000000000000000000000000000000008152600401610fa59061210a565b60405180910390fd5b609860008473ffffffffffffffffffffffffffffffffffffffff1673ffffffffffffffffffffffffffffffffffffffff16815260200190815260200160002060000160019054906101000a900467ffffffffffffffff1667ffffffffffffffff16905092915050565b600060019054906101000a900460ff16806110365750611035611466565b5b8061104d57506000809054906101000a900460ff16155b61108c576040517f08c379a0000000000000000000000000000000000000000000000000000000008152600401611083906121aa565b60405180910390fd5b60008060019054906101000a900460ff1615905080156110dc576001600060016101000a81548160ff02191690831515021790555060016000806101000a81548160ff0219169083151502179055505b6110e461147d565b81609760006101000a81548173ffffffffffffffffffffffffffffffffffffffff021916908373ffffffffffffffffffffffffffffffffffffffff16021790555080156111465760008060016101000a81548160ff0219169083151502179055505b5050565b611152611311565b73ffffffffffffffffffffffffffffffffffffffff16606560009054906101000a900473ffffffffffffffffffffffffffffffffffffffff1673ffffffffffffffffffffffffffffffffffffffff16146111e1576040517f08c379a00000000000000000000000000000000000000000000000000000000081526004016111d89061216a565b60405180910390fd5b600073ffffffffffffffffffffffffffffffffffffffff168173ffffffffffffffffffffffffffffffffffffffff161415611251576040517f08c379a0000000000000000000000000000000000000000000000000000000008152600401611248906120aa565b60405180910390fd5b8073ffffffffffffffffffffffffffffffffffffffff16606560009054906101000a900473ffffffffffffffffffffffffffffffffffffffff1673ffffffffffffffffffffffffffffffffffffffff167f8be0079c531659141344cd1fd0a4f28419497f9722a3daafe3b4186f6b6457e060405160405180910390a380606560006101000a81548173ffffffffffffffffffffffffffffffffffffffff021916908373ffffffffffffffffffffffffffffffffffffffff16021790555050565b600033905090565b60008273ffffffffffffffffffffffffffffffffffffffff166370a08231836040518263ffffffff1660e01b81526004016113549190611fc9565b60206040518083038186803b15801561136c57600080fd5b505afa158015611380573d6000803e3d6000fd5b505050506040513d601f19601f820116820180604052508101906113a49190611b85565b905092915050565b6000808314156113bf5760009050611416565b60008284029050828482816113d057fe5b0414611411576040517f08c379a00000000000000000000000000000000000000000000000000000000081526004016114089061214a565b60405180910390fd5b809150505b92915050565b600061145e83836040518060400160405280601a81526020017f536166654d6174683a206469766973696f6e206279207a65726f000000000000815250611576565b905092915050565b6000803090506000813b9050600081149250505090565b600060019054906101000a900460ff168061149c575061149b611466565b5b806114b357506000809054906101000a900460ff16155b6114f2576040517f08c379a00000000000000000000000000000000000000000000000000000000081526004016114e9906121aa565b60405180910390fd5b60008060019054906101000a900460ff161590508015611542576001600060016101000a81548160ff02191690831515021790555060016000806101000a81548160ff0219169083151502179055505b61154a6115d7565b6115526116c0565b80156115735760008060016101000a81548160ff0219169083151502179055505b50565b600080831182906115bd576040517f08c379a00000000000000000000000000000000000000000000000000000000081526004016115b49190612088565b60405180910390fd5b5060008385816115c957fe5b049050809150509392505050565b600060019054906101000a900460ff16806115f657506115f5611466565b5b8061160d57506000809054906101000a900460ff16155b61164c576040517f08c379a0000000000000000000000000000000000000000000000000000000008152600401611643906121aa565b60405180910390fd5b60008060019054906101000a900460ff16159050801561169c576001600060016101000a81548160ff02191690831515021790555060016000806101000a81548160ff0219169083151502179055505b80156116bd5760008060016101000a81548160ff0219169083151502179055505b50565b600060019054906101000a900460ff16806116df57506116de611466565b5b806116f657506000809054906101000a900460ff16155b611735576040517f08c379a000000000000000000000000000000000000000000000000000000000815260040161172c906121aa565b60405180910390fd5b60008060019054906101000a900460ff161590508015611785576001600060016101000a81548160ff02191690831515021790555060016000806101000a81548160ff0219169083151502179055505b600061178f611311565b905080606560006101000a81548173ffffffffffffffffffffffffffffffffffffffff021916908373ffffffffffffffffffffffffffffffffffffffff1602179055508073ffffffffffffffffffffffffffffffffffffffff16600073ffffffffffffffffffffffffffffffffffffffff167f8be0079c531659141344cd1fd0a4f28419497f9722a3daafe3b4186f6b6457e060405160405180910390a350801561184f5760008060016101000a81548160ff0219169083151502179055505b50565b60008135905061186181612353565b92915050565b60008151905061187681612353565b92915050565b60008083601f84011261188e57600080fd5b8235905067ffffffffffffffff8111156118a757600080fd5b6020830191508360208202830111156118bf57600080fd5b9250929050565b60008083601f8401126118d857600080fd5b8235905067ffffffffffffffff8111156118f157600080fd5b60208301915083608082028301111561190957600080fd5b9250929050565b60008135905061191f8161236a565b92915050565b60008151905061193481612381565b92915050565b60008135905061194981612398565b92915050565b60008151905061195e816123af565b92915050565b600081359050611973816123c6565b92915050565b600081519050611988816123c6565b92915050565b60008151905061199d816123dd565b92915050565b6000813590506119b2816123f4565b92915050565b6000602082840312156119ca57600080fd5b60006119d884828501611852565b91505092915050565b6000602082840312156119f357600080fd5b6000611a0184828501611867565b91505092915050565b60008060408385031215611a1d57600080fd5b6000611a2b85828601611852565b9250506020611a3c85828601611964565b9150509250929050565b60008060008060408587031215611a5c57600080fd5b600085013567ffffffffffffffff811115611a7657600080fd5b611a828782880161187c565b9450945050602085013567ffffffffffffffff811115611aa157600080fd5b611aad878288016118c6565b925092505092959194509250565b600060208284031215611acd57600080fd5b6000611adb84828501611910565b91505092915050565b600060208284031215611af657600080fd5b6000611b0484828501611925565b91505092915050565b600060208284031215611b1f57600080fd5b6000611b2d8482850161193a565b91505092915050565b600080600060608486031215611b4b57600080fd5b6000611b598682870161194f565b9350506020611b6a8682870161194f565b9250506040611b7b8682870161198e565b9150509250925092565b600060208284031215611b9757600080fd5b6000611ba584828501611979565b91505092915050565b60008060408385031215611bc157600080fd5b6000611bcf85828601611979565b9250506020611be085828601611979565b9150509250929050565b600060208284031215611bfc57600080fd5b6000611c0a848285016119a3565b91505092915050565b611c1c81612241565b82525050565b611c2b81612253565b82525050565b611c3a816122eb565b82525050565b6000611c4b82612225565b611c558185612230565b9350611c6581856020860161230f565b611c6e81612342565b840191505092915050565b6000611c86602683612230565b91507f4f776e61626c653a206e6577206f776e657220697320746865207a65726f206160008301527f64647265737300000000000000000000000000000000000000000000000000006020830152604082019050919050565b6000611cec600d83612230565b91507f707269636520746f6f206c6f77000000000000000000000000000000000000006000830152602082019050919050565b6000611d2c600e83612230565b91507f6261642074312062616c616e63650000000000000000000000000000000000006000830152602082019050919050565b6000611d6c600783612230565b91507f21737461626c65000000000000000000000000000000000000000000000000006000830152602082019050919050565b6000611dac600f83612230565b91507f707269636520746f6f207374616c6500000000000000000000000000000000006000830152602082019050919050565b6000611dec602183612230565b91507f536166654d6174683a206d756c7469706c69636174696f6e206f766572666c6f60008301527f77000000000000000000000000000000000000000000000000000000000000006020830152604082019050919050565b6000611e52602083612230565b91507f4f776e61626c653a2063616c6c6572206973206e6f7420746865206f776e65726000830152602082019050919050565b6000611e92600e83612230565b91507f6261642074302062616c616e63650000000000000000000000000000000000006000830152602082019050919050565b6000611ed2602e83612230565b91507f436f6e747261637420696e7374616e63652068617320616c726561647920626560008301527f656e20696e697469616c697a65640000000000000000000000000000000000006020830152604082019050919050565b6000611f38600783612230565b91507f626164206c656e000000000000000000000000000000000000000000000000006000830152602082019050919050565b6000611f78600e83612230565b91507f707269636520746f6f20686967680000000000000000000000000000000000006000830152602082019050919050565b611fb4816122bd565b82525050565b611fc3816122d7565b82525050565b6000602082019050611fde6000830184611c13565b92915050565b6000604082019050611ff96000830185611c13565b6120066020830184611c13565b9392505050565b60006020820190506120226000830184611c22565b92915050565b600060808201905061203d6000830187611c22565b61204a6020830186611fba565b6120576040830185611fba565b6120646060830184611fba565b95945050505050565b60006020820190506120826000830184611c31565b92915050565b600060208201905081810360008301526120a28184611c40565b905092915050565b600060208201905081810360008301526120c381611c79565b9050919050565b600060208201905081810360008301526120e381611cdf565b9050919050565b6000602082019050818103600083015261210381611d1f565b9050919050565b6000602082019050818103600083015261212381611d5f565b9050919050565b6000602082019050818103600083015261214381611d9f565b9050919050565b6000602082019050818103600083015261216381611ddf565b9050919050565b6000602082019050818103600083015261218381611e45565b9050919050565b600060208201905081810360008301526121a381611e85565b9050919050565b600060208201905081810360008301526121c381611ec5565b9050919050565b600060208201905081810360008301526121e381611f2b565b9050919050565b6000602082019050818103600083015261220381611f6b565b9050919050565b600060208201905061221f6000830184611fab565b92915050565b600081519050919050565b600082825260208201905092915050565b600061224c8261229d565b9050919050565b60008115159050919050565b600061226a82612241565b9050919050565b600061227c82612241565b9050919050565b60006dffffffffffffffffffffffffffff82169050919050565b600073ffffffffffffffffffffffffffffffffffffffff82169050919050565b6000819050919050565b600063ffffffff82169050919050565b600067ffffffffffffffff82169050919050565b60006122f6826122fd565b9050919050565b60006123088261229d565b9050919050565b60005b8381101561232d578082015181840152602081019050612312565b8381111561233c576000848401525b50505050565b6000601f19601f8301169050919050565b61235c81612241565b811461236757600080fd5b50565b61237381612253565b811461237e57600080fd5b50565b61238a8161225f565b811461239557600080fd5b50565b6123a181612271565b81146123ac57600080fd5b50565b6123b881612283565b81146123c357600080fd5b50565b6123cf816122bd565b81146123da57600080fd5b50565b6123e6816122c7565b81146123f157600080fd5b50565b6123fd816122d7565b811461240857600080fd5b5056fea2646970667358221220537f14271565c496b6498d8eaa0bc8a43a13e2f06cab41c8c02113d691a89efd64736f6c63430006060033",
  "linkReferences": {},
  "deployedLinkReferences": {}
}